{
  "_format": "hh-sol-artifact-1",
  "contractName": "VidTraceability",
  "sourceName": "contracts/VidTraceability.sol",
  "abi": [
    {
      "inputs": [],
      "stateMutability": "nonpayable",
      "type": "constructor"
    },
    {
      "anonymous": false,
      "inputs": [
        {
          "indexed": true,
          "internalType": "address",
          "name": "user",
          "type": "address"
        },
        {
          "indexed": false,
          "internalType": "bytes32",
          "name": "parentPHash",
          "type": "bytes32"
        },
        {
          "indexed": false,
          "internalType": "bytes32",
          "name": "repostedPHash",
          "type": "bytes32"
        },
        {
          "indexed": false,
          "internalType": "bool",
          "name": "isAltered",
          "type": "bool"
        }
      ],
      "name": "VideoTracked",
      "type": "event"
    },
    {
      "inputs": [],
      "name": "agreementFormIPFS",
      "outputs": [
        {
          "internalType": "bytes32",
          "name": "",
          "type": "bytes32"
        }
      ],
      "stateMutability": "view",
      "type": "function"
    },
    {
      "inputs": [
        {
          "internalType": "bytes32",
          "name": "",
          "type": "bytes32"
        }
      ],
      "name": "allVideos",
      "outputs": [
        {
          "internalType": "address",
          "name": "vidOwner",
          "type": "address"
        },
        {
          "internalType": "string",
          "name": "info",
          "type": "string"
        },
        {
          "internalType": "bytes32",
          "name": "pHash",
          "type": "bytes32"
        },
        {
          "internalType": "address",
          "name": "scAddress",
          "type": "address"
        },
        {
          "internalType": "string",
          "name": "metadata",
          "type": "string"
        },
        {
          "internalType": "string",
          "name": "ipfsHash",
          "type": "string"
        },
        {
          "internalType": "uint256",
          "name": "timestamp",
          "type": "uint256"
        }
      ],
      "stateMutability": "view",
      "type": "function"
    },
    {
      "inputs": [],
      "name": "mainVideo",
      "outputs": [
        {
          "internalType": "address",
          "name": "vidOwner",
          "type": "address"
        },
        {
          "internalType": "string",
          "name": "info",
          "type": "string"
        },
        {
          "internalType": "bytes32",
          "name": "pHash",
          "type": "bytes32"
        },
        {
          "internalType": "address",
          "name": "scAddress",
          "type": "address"
        },
        {
          "internalType": "string",
          "name": "metadata",
          "type": "string"
        },
        {
          "internalType": "string",
          "name": "ipfsHash",
          "type": "string"
        },
        {
          "internalType": "uint256",
          "name": "timestamp",
          "type": "uint256"
        }
      ],
      "stateMutability": "view",
      "type": "function"
    },
    {
      "inputs": [],
      "name": "owner",
      "outputs": [
        {
          "internalType": "address",
          "name": "",
          "type": "address"
        }
      ],
      "stateMutability": "view",
      "type": "function"
    },
    {
      "inputs": [
        {
          "internalType": "bytes32",
          "name": "",
          "type": "bytes32"
        }
      ],
      "name": "reposts",
      "outputs": [
        {
          "internalType": "address",
          "name": "repostedBy",
          "type": "address"
        },
        {
          "internalType": "bytes32",
          "name": "parentPHash",
          "type": "bytes32"
        },
        {
          "internalType": "bytes32",
          "name": "repostedPHash",
          "type": "bytes32"
        },
        {
          "internalType": "string",
          "name": "platform",
          "type": "string"
        },
        {
          "internalType": "string",
          "name": "ipfsHash",
          "type": "string"
        },
        {
          "internalType": "uint256",
          "name": "timestamp",
          "type": "uint256"
        },
        {
          "internalType": "bool",
          "name": "isAltered",
          "type": "bool"
        }
      ],
      "stateMutability": "view",
      "type": "function"
    },
    {
      "inputs": [
        {
          "internalType": "bytes32",
          "name": "newPHash",
          "type": "bytes32"
        },
        {
          "internalType": "string",
          "name": "platform",
          "type": "string"
        },
        {
          "internalType": "string",
          "name": "ipfsHash",
          "type": "string"
        }
      ],
      "name": "trackVideo",
      "outputs": [],
      "stateMutability": "nonpayable",
      "type": "function"
    },
    {
      "inputs": [
        {
          "internalType": "uint256",
          "name": "",
          "type": "uint256"
        }
      ],
      "name": "videoHashes",
      "outputs": [
        {
          "internalType": "bytes32",
          "name": "",
          "type": "bytes32"
        }
      ],
      "stateMutability": "view",
      "type": "function"
    }
  ],
  "bytecode": "0x608060405234801561001057600080fd5b50336000806101000a81548173ffffffffffffffffffffffffffffffffffffffff021916908373ffffffffffffffffffffffffffffffffffffffff1602179055506040518060e001604052803373ffffffffffffffffffffffffffffffffffffffff1681526020016040518060400160405280600d81526020017f4120636f6d696320766964656f0000000000000000000000000000000000000081525081526020016040516020016100c29061044d565b6040516020818303038152906040528051906020012081526020013073ffffffffffffffffffffffffffffffffffffffff1681526020016040518060400160405280601981526020017f446174653a31382f392f323031382c2054696d653a353a35370000000000000081525081526020016040518060400160405280600d81526020017f516d4578616d706c654861736800000000000000000000000000000000000000815250815260200142815250600260008201518160000160006101000a81548173ffffffffffffffffffffffffffffffffffffffff021916908373ffffffffffffffffffffffffffffffffffffffff16021790555060208201518160010190816101d191906106b2565b506040820151816002015560608201518160030160006101000a81548173ffffffffffffffffffffffffffffffffffffffff021916908373ffffffffffffffffffffffffffffffffffffffff160217905550608082015181600401908161023891906106b2565b5060a082015181600501908161024e91906106b2565b5060c08201518160060155905050600260096000600280015481526020019081526020016000206000820160009054906101000a900473ffffffffffffffffffffffffffffffffffffffff168160000160006101000a81548173ffffffffffffffffffffffffffffffffffffffff021916908373ffffffffffffffffffffffffffffffffffffffff160217905550600182018160010190816102f0919061079a565b50600282015481600201556003820160009054906101000a900473ffffffffffffffffffffffffffffffffffffffff168160030160006101000a81548173ffffffffffffffffffffffffffffffffffffffff021916908373ffffffffffffffffffffffffffffffffffffffff16021790555060048201816004019081610376919061079a565b506005820181600501908161038b919061079a565b5060068201548160060155905050600b600280015490806001815401808255809150506001900390600052602060002001600090919091909150556040516020016103d5906108ce565b604051602081830303815290604052805190602001206001819055506108e3565b600081905092915050565b7f73616d706c6520766964656f0000000000000000000000000000000000000000600082015250565b6000610437600c836103f6565b915061044282610401565b600c82019050919050565b60006104588261042a565b9150819050919050565b600081519050919050565b7f4e487b7100000000000000000000000000000000000000000000000000000000600052604160045260246000fd5b7f4e487b7100000000000000000000000000000000000000000000000000000000600052602260045260246000fd5b600060028204905060018216806104e357607f821691505b6020821081036104f6576104f561049c565b5b50919050565b60008190508160005260206000209050919050565b60006020601f8301049050919050565b600082821b905092915050565b60006008830261055e7fffffffffffffffffffffffffffffffffffffffffffffffffffffffffffffffff82610521565b6105688683610521565b95508019841693508086168417925050509392505050565b6000819050919050565b6000819050919050565b60006105af6105aa6105a584610580565b61058a565b610580565b9050919050565b6000819050919050565b6105c983610594565b6105dd6105d5826105b6565b84845461052e565b825550505050565b600090565b6105f26105e5565b6105fd8184846105c0565b505050565b5b81811015610621576106166000826105ea565b600181019050610603565b5050565b601f82111561066657610637816104fc565b61064084610511565b8101602085101561064f578190505b61066361065b85610511565b830182610602565b50505b505050565b600082821c905092915050565b60006106896000198460080261066b565b1980831691505092915050565b60006106a28383610678565b9150826002028217905092915050565b6106bb82610462565b67ffffffffffffffff8111156106d4576106d361046d565b5b6106de82546104cb565b6106e9828285610625565b600060209050601f83116001811461071c576000841561070a578287015190505b6107148582610696565b86555061077c565b601f19841661072a866104fc565b60005b828110156107525784890151825560018201915060208501945060208101905061072d565b8683101561076f578489015161076b601f891682610678565b8355505b6001600288020188555050505b505050505050565b600081549050610793816104cb565b9050919050565b8181036107a8575050610880565b6107b182610784565b67ffffffffffffffff8111156107ca576107c961046d565b5b6107d482546104cb565b6107df828285610625565b6000601f83116001811461080e57600084156107fc578287015490505b6108068582610696565b865550610879565b601f19841661081c876104fc565b9650610827866104fc565b60005b8281101561084f5784890154825560018201915060018501945060208101905061082a565b8683101561086c5784890154610868601f891682610678565b8355505b6001600288020188555050505b5050505050505b565b7f41677265656d656e74466f726d00000000000000000000000000000000000000600082015250565b60006108b8600d836103f6565b91506108c382610882565b600d82019050919050565b60006108d9826108ab565b9150819050919050565b611550806108f26000396000f3fe608060405234801561001057600080fd5b506004361061007d5760003560e01c8063a2a21d2e1161005b578063a2a21d2e146100f4578063d1a4e2c81461012a578063dfbe190c14610146578063f0742413146101765761007d565b8063259903a4146100825780638da5cb5b146100b85780639a6b3112146100d6575b600080fd5b61009c60048036038101906100979190610c76565b61019a565b6040516100af9796959493929190610db7565b60405180910390f35b6100c0610319565b6040516100cd9190610e34565b60405180910390f35b6100de61033d565b6040516100eb9190610e4f565b60405180910390f35b61010e60048036038101906101099190610c76565b610343565b6040516101219796959493929190610e6a565b60405180910390f35b610144600480360381019061013f9190611023565b61055d565b005b610160600480360381019061015b91906110da565b610975565b60405161016d9190610e4f565b60405180910390f35b61017e610999565b6040516101919796959493929190610e6a565b60405180910390f35b600a6020528060005260406000206000915090508060000160009054906101000a900473ffffffffffffffffffffffffffffffffffffffff16908060010154908060020154908060030180546101ef90611136565b80601f016020809104026020016040519081016040528092919081815260200182805461021b90611136565b80156102685780601f1061023d57610100808354040283529160200191610268565b820191906000526020600020905b81548152906001019060200180831161024b57829003601f168201915b50505050509080600401805461027d90611136565b80601f01602080910402602001604051908101604052809291908181526020018280546102a990611136565b80156102f65780601f106102cb576101008083540402835291602001916102f6565b820191906000526020600020905b8154815290600101906020018083116102d957829003601f168201915b5050505050908060050154908060060160009054906101000a900460ff16905087565b60008054906101000a900473ffffffffffffffffffffffffffffffffffffffff1681565b60015481565b60096020528060005260406000206000915090508060000160009054906101000a900473ffffffffffffffffffffffffffffffffffffffff169080600101805461038c90611136565b80601f01602080910402602001604051908101604052809291908181526020018280546103b890611136565b80156104055780601f106103da57610100808354040283529160200191610405565b820191906000526020600020905b8154815290600101906020018083116103e857829003601f168201915b5050505050908060020154908060030160009054906101000a900473ffffffffffffffffffffffffffffffffffffffff169080600401805461044690611136565b80601f016020809104026020016040519081016040528092919081815260200182805461047290611136565b80156104bf5780601f10610494576101008083540402835291602001916104bf565b820191906000526020600020905b8154815290600101906020018083116104a257829003601f168201915b5050505050908060050180546104d490611136565b80601f016020809104026020016040519081016040528092919081815260200182805461050090611136565b801561054d5780601f106105225761010080835404028352916020019161054d565b820191906000526020600020905b81548152906001019060200180831161053057829003601f168201915b5050505050908060060154905087565b6000600a600085815260200190815260200160002060050154146105b6576040517f08c379a00000000000000000000000000000000000000000000000000000000081526004016105ad906111b3565b60405180910390fd5b60008060001b90506000600190506000805b600b8054905081101561062f576000600b82815481106105eb576105ea6111d3565b5b9060005260206000200154905060006106048983610ba1565b9050600a8111610620578195506001935060019450505061062f565b505080806001019150506105c8565b5080610809576000915085925060006040518060e001604052803373ffffffffffffffffffffffffffffffffffffffff1681526020016040518060400160405280601081526020017f4e657720756e6971756520766964656f0000000000000000000000000000000081525081526020018881526020013073ffffffffffffffffffffffffffffffffffffffff168152602001604051806020016040528060008152508152602001868152602001428152509050806009600089815260200190815260200160002060008201518160000160006101000a81548173ffffffffffffffffffffffffffffffffffffffff021916908373ffffffffffffffffffffffffffffffffffffffff160217905550602082015181600101908161075391906113ae565b506040820151816002015560608201518160030160006101000a81548173ffffffffffffffffffffffffffffffffffffffff021916908373ffffffffffffffffffffffffffffffffffffffff16021790555060808201518160040190816107ba91906113ae565b5060a08201518160050190816107d091906113ae565b5060c08201518160060155905050600b879080600181540180825580915050600190039060005260206000200160009091909190915055505b6040518060e001604052803373ffffffffffffffffffffffffffffffffffffffff168152602001848152602001878152602001868152602001858152602001428152602001831515815250600a600088815260200190815260200160002060008201518160000160006101000a81548173ffffffffffffffffffffffffffffffffffffffff021916908373ffffffffffffffffffffffffffffffffffffffff160217905550602082015181600101556040820151816002015560608201518160030190816108d791906113ae565b5060808201518160040190816108ed91906113ae565b5060a0820151816005015560c08201518160060160006101000a81548160ff0219169083151502179055509050503373ffffffffffffffffffffffffffffffffffffffff167f4d689f436569e33e87b5f28c188bcddcdf0ad43804a000863b5660eb979d84be84888560405161096593929190611480565b60405180910390a2505050505050565b600b818154811061098557600080fd5b906000526020600020016000915090505481565b60028060000160009054906101000a900473ffffffffffffffffffffffffffffffffffffffff16908060010180546109d090611136565b80601f01602080910402602001604051908101604052809291908181526020018280546109fc90611136565b8015610a495780601f10610a1e57610100808354040283529160200191610a49565b820191906000526020600020905b815481529060010190602001808311610a2c57829003601f168201915b5050505050908060020154908060030160009054906101000a900473ffffffffffffffffffffffffffffffffffffffff1690806004018054610a8a90611136565b80601f0160208091040260200160405190810160405280929190818152602001828054610ab690611136565b8015610b035780601f10610ad857610100808354040283529160200191610b03565b820191906000526020600020905b815481529060010190602001808311610ae657829003601f168201915b505050505090806005018054610b1890611136565b80601f0160208091040260200160405190810160405280929190818152602001828054610b4490611136565b8015610b915780601f10610b6657610100808354040283529160200191610b91565b820191906000526020600020905b815481529060010190602001808311610b7457829003601f168201915b5050505050908060060154905087565b600080600090505b6020811015610c25576000838260208110610bc757610bc66111d3565b5b1a60f81b858360208110610bde57610bdd6111d3565b5b1a60f81b1860f81c90505b60008160ff1614610c17576001811660ff1683610c0691906114e6565b925060018160ff16901c9050610be9565b508080600101915050610ba9565b5092915050565b6000604051905090565b600080fd5b600080fd5b6000819050919050565b610c5381610c40565b8114610c5e57600080fd5b50565b600081359050610c7081610c4a565b92915050565b600060208284031215610c8c57610c8b610c36565b5b6000610c9a84828501610c61565b91505092915050565b600073ffffffffffffffffffffffffffffffffffffffff82169050919050565b6000610cce82610ca3565b9050919050565b610cde81610cc3565b82525050565b610ced81610c40565b82525050565b600081519050919050565b600082825260208201905092915050565b60005b83811015610d2d578082015181840152602081019050610d12565b60008484015250505050565b6000601f19601f8301169050919050565b6000610d5582610cf3565b610d5f8185610cfe565b9350610d6f818560208601610d0f565b610d7881610d39565b840191505092915050565b6000819050919050565b610d9681610d83565b82525050565b60008115159050919050565b610db181610d9c565b82525050565b600060e082019050610dcc600083018a610cd5565b610dd96020830189610ce4565b610de66040830188610ce4565b8181036060830152610df88187610d4a565b90508181036080830152610e0c8186610d4a565b9050610e1b60a0830185610d8d565b610e2860c0830184610da8565b98975050505050505050565b6000602082019050610e496000830184610cd5565b92915050565b6000602082019050610e646000830184610ce4565b92915050565b600060e082019050610e7f600083018a610cd5565b8181036020830152610e918189610d4a565b9050610ea06040830188610ce4565b610ead6060830187610cd5565b8181036080830152610ebf8186610d4a565b905081810360a0830152610ed38185610d4a565b9050610ee260c0830184610d8d565b98975050505050505050565b600080fd5b600080fd5b7f4e487b7100000000000000000000000000000000000000000000000000000000600052604160045260246000fd5b610f3082610d39565b810181811067ffffffffffffffff82111715610f4f57610f4e610ef8565b5b80604052505050565b6000610f62610c2c565b9050610f6e8282610f27565b919050565b600067ffffffffffffffff821115610f8e57610f8d610ef8565b5b610f9782610d39565b9050602081019050919050565b82818337600083830152505050565b6000610fc6610fc184610f73565b610f58565b905082815260208101848484011115610fe257610fe1610ef3565b5b610fed848285610fa4565b509392505050565b600082601f83011261100a57611009610eee565b5b813561101a848260208601610fb3565b91505092915050565b60008060006060848603121561103c5761103b610c36565b5b600061104a86828701610c61565b935050602084013567ffffffffffffffff81111561106b5761106a610c3b565b5b61107786828701610ff5565b925050604084013567ffffffffffffffff81111561109857611097610c3b565b5b6110a486828701610ff5565b9150509250925092565b6110b781610d83565b81146110c257600080fd5b50565b6000813590506110d4816110ae565b92915050565b6000602082840312156110f0576110ef610c36565b5b60006110fe848285016110c5565b91505092915050565b7f4e487b7100000000000000000000000000000000000000000000000000000000600052602260045260246000fd5b6000600282049050600182168061114e57607f821691505b60208210810361116157611160611107565b5b50919050565b7f566964656f20616c7265616479207265706f7374656400000000000000000000600082015250565b600061119d601683610cfe565b91506111a882611167565b602082019050919050565b600060208201905081810360008301526111cc81611190565b9050919050565b7f4e487b7100000000000000000000000000000000000000000000000000000000600052603260045260246000fd5b60008190508160005260206000209050919050565b60006020601f8301049050919050565b600082821b905092915050565b6000600883026112647fffffffffffffffffffffffffffffffffffffffffffffffffffffffffffffffff82611227565b61126e8683611227565b95508019841693508086168417925050509392505050565b6000819050919050565b60006112ab6112a66112a184610d83565b611286565b610d83565b9050919050565b6000819050919050565b6112c583611290565b6112d96112d1826112b2565b848454611234565b825550505050565b600090565b6112ee6112e1565b6112f98184846112bc565b505050565b5b8181101561131d576113126000826112e6565b6001810190506112ff565b5050565b601f8211156113625761133381611202565b61133c84611217565b8101602085101561134b578190505b61135f61135785611217565b8301826112fe565b50505b505050565b600082821c905092915050565b600061138560001984600802611367565b1980831691505092915050565b600061139e8383611374565b9150826002028217905092915050565b6113b782610cf3565b67ffffffffffffffff8111156113d0576113cf610ef8565b5b6113da8254611136565b6113e5828285611321565b600060209050601f8311600181146114185760008415611406578287015190505b6114108582611392565b865550611478565b601f19841661142686611202565b60005b8281101561144e57848901518255600182019150602085019450602081019050611429565b8683101561146b5784890151611467601f891682611374565b8355505b6001600288020188555050505b505050505050565b60006060820190506114956000830186610ce4565b6114a26020830185610ce4565b6114af6040830184610da8565b949350505050565b7f4e487b7100000000000000000000000000000000000000000000000000000000600052601160045260246000fd5b60006114f182610d83565b91506114fc83610d83565b9250828201905080821115611514576115136114b7565b5b9291505056fea2646970667358221220c5d2b7860fa94f33a3d1b0f46af39aa66a7fe5fc70c4c5d1b0c7c304b0c2157b64736f6c634300081c0033",
  "linkReferences": {},
  "deployedLinkReferences": {}
}