{
    "_format": "hh-sol-artifact-1",
    "contractName": "Register",
    "sourceName": "contracts/Register.sol",
    "abi": [
        {
            "anonymous": false,
            "inputs": [
                {
                    "indexed": true,
                    "internalType": "address",
                    "name": "userAddress",
                    "type": "address"
                },
                {
                    "indexed": false,
                    "internalType": "string",
                    "name": "username",
                    "type": "string"
                }
            ],
            "name": "UserRegistered",
            "type": "event"
        },
        {
            "inputs": [
                {
                    "internalType": "address",
                    "name": "_userAddress",
                    "type": "address"
                }
            ],
            "name": "getUser",
            "outputs": [
                {
                    "components": [
                        {
                            "internalType": "string",
                            "name": "username",
                            "type": "string"
                        },
                        {
                            "internalType": "string",
                            "name": "bio",
                            "type": "string"
                        },
                        {
                            "internalType": "int256",
                            "name": "GS",
                            "type": "int256"
                        },
                        {
                            "internalType": "string",
                            "name": "profilePic",
                            "type": "string"
                        },
                        {
                            "internalType": "address",
                            "name": "userAddress",
                            "type": "address"
                        }
                    ],
                    "internalType": "struct Register.User",
                    "name": "",
                    "type": "tuple"
                }
            ],
            "stateMutability": "view",
            "type": "function"
        },
        {
            "inputs": [
                {
                    "internalType": "address",
                    "name": "_userAddress",
                    "type": "address"
                }
            ],
            "name": "isRegistered",
            "outputs": [
                {
                    "internalType": "bool",
                    "name": "",
                    "type": "bool"
                }
            ],
            "stateMutability": "view",
            "type": "function"
        },
        {
            "inputs": [
                {
                    "internalType": "string",
                    "name": "_username",
                    "type": "string"
                },
                {
                    "internalType": "string",
                    "name": "_bio",
                    "type": "string"
                },
                {
                    "internalType": "string",
                    "name": "_profilePic",
                    "type": "string"
                }
            ],
            "name": "registerUser",
            "outputs": [],
            "stateMutability": "nonpayable",
            "type": "function"
        },
        {
            "inputs": [
                {
                    "internalType": "address",
                    "name": "",
                    "type": "address"
                }
            ],
            "name": "users",
            "outputs": [
                {
                    "internalType": "string",
                    "name": "username",
                    "type": "string"
                },
                {
                    "internalType": "string",
                    "name": "bio",
                    "type": "string"
                },
                {
                    "internalType": "int256",
                    "name": "GS",
                    "type": "int256"
                },
                {
                    "internalType": "string",
                    "name": "profilePic",
                    "type": "string"
                },
                {
                    "internalType": "address",
                    "name": "userAddress",
                    "type": "address"
                }
            ],
            "stateMutability": "view",
            "type": "function"
        }
    ],
    "bytecode": "0x6080604052348015600f57600080fd5b5061138a8061001f6000396000f3fe608060405234801561001057600080fd5b506004361061004c5760003560e01c80636f77926b14610051578063a87430ba14610081578063c3c5a547146100b5578063d637dcfa146100e5575b600080fd5b61006b600480360381019061006691906109da565b610101565b6040516100789190610b43565b60405180910390f35b61009b600480360381019061009691906109da565b6103ff565b6040516100ac959493929190610bcd565b60405180910390f35b6100cf60048036038101906100ca91906109da565b6105ed565b6040516100dc9190610c50565b60405180910390f35b6100ff60048036038101906100fa9190610da0565b610646565b005b610109610923565b60008060008473ffffffffffffffffffffffffffffffffffffffff1673ffffffffffffffffffffffffffffffffffffffff168152602001908152602001600020600001805461015790610e76565b905011610199576040517f08c379a000000000000000000000000000000000000000000000000000000000815260040161019090610ef3565b60405180910390fd5b6000808373ffffffffffffffffffffffffffffffffffffffff1673ffffffffffffffffffffffffffffffffffffffff1681526020019081526020016000206040518060a00160405290816000820180546101f290610e76565b80601f016020809104026020016040519081016040528092919081815260200182805461021e90610e76565b801561026b5780601f106102405761010080835404028352916020019161026b565b820191906000526020600020905b81548152906001019060200180831161024e57829003601f168201915b5050505050815260200160018201805461028490610e76565b80601f01602080910402602001604051908101604052809291908181526020018280546102b090610e76565b80156102fd5780601f106102d2576101008083540402835291602001916102fd565b820191906000526020600020905b8154815290600101906020018083116102e057829003601f168201915b505050505081526020016002820154815260200160038201805461032090610e76565b80601f016020809104026020016040519081016040528092919081815260200182805461034c90610e76565b80156103995780601f1061036e57610100808354040283529160200191610399565b820191906000526020600020905b81548152906001019060200180831161037c57829003601f168201915b505050505081526020016004820160009054906101000a900473ffffffffffffffffffffffffffffffffffffffff1673ffffffffffffffffffffffffffffffffffffffff1673ffffffffffffffffffffffffffffffffffffffff16815250509050919050565b600060205280600052604060002060009150905080600001805461042290610e76565b80601f016020809104026020016040519081016040528092919081815260200182805461044e90610e76565b801561049b5780601f106104705761010080835404028352916020019161049b565b820191906000526020600020905b81548152906001019060200180831161047e57829003601f168201915b5050505050908060010180546104b090610e76565b80601f01602080910402602001604051908101604052809291908181526020018280546104dc90610e76565b80156105295780601f106104fe57610100808354040283529160200191610529565b820191906000526020600020905b81548152906001019060200180831161050c57829003601f168201915b50505050509080600201549080600301805461054490610e76565b80601f016020809104026020016040519081016040528092919081815260200182805461057090610e76565b80156105bd5780601f10610592576101008083540402835291602001916105bd565b820191906000526020600020905b8154815290600101906020018083116105a057829003601f168201915b5050505050908060040160009054906101000a900473ffffffffffffffffffffffffffffffffffffffff16905085565b6000806000808473ffffffffffffffffffffffffffffffffffffffff1673ffffffffffffffffffffffffffffffffffffffff168152602001908152602001600020600001805461063c90610e76565b9050119050919050565b60008060003373ffffffffffffffffffffffffffffffffffffffff1673ffffffffffffffffffffffffffffffffffffffff168152602001908152602001600020600001805461069490610e76565b9050146106d6576040517f08c379a00000000000000000000000000000000000000000000000000000000081526004016106cd90610f5f565b60405180910390fd5b826001816040516106e79190610fbb565b908152602001604051809103902060009054906101000a900460ff1615610743576040517f08c379a000000000000000000000000000000000000000000000000000000000815260040161073a9061101e565b60405180910390fd5b6000845111610787576040517f08c379a000000000000000000000000000000000000000000000000000000000815260040161077e9061108a565b60405180910390fd5b6040518060a00160405280858152602001848152602001606481526020018381526020013373ffffffffffffffffffffffffffffffffffffffff168152506000803373ffffffffffffffffffffffffffffffffffffffff1673ffffffffffffffffffffffffffffffffffffffff16815260200190815260200160002060008201518160000190816108189190611260565b50602082015181600101908161082e9190611260565b5060408201518160020155606082015181600301908161084e9190611260565b5060808201518160040160006101000a81548173ffffffffffffffffffffffffffffffffffffffff021916908373ffffffffffffffffffffffffffffffffffffffff160217905550905050600180856040516108aa9190610fbb565b908152602001604051809103902060006101000a81548160ff0219169083151502179055503373ffffffffffffffffffffffffffffffffffffffff167f48cac28ad4dc618e15f4c2dd5e97751182f166de97b25618318b2112aa951a2f856040516109159190611332565b60405180910390a250505050565b6040518060a0016040528060608152602001606081526020016000815260200160608152602001600073ffffffffffffffffffffffffffffffffffffffff1681525090565b6000604051905090565b600080fd5b600080fd5b600073ffffffffffffffffffffffffffffffffffffffff82169050919050565b60006109a78261097c565b9050919050565b6109b78161099c565b81146109c257600080fd5b50565b6000813590506109d4816109ae565b92915050565b6000602082840312156109f0576109ef610972565b5b60006109fe848285016109c5565b91505092915050565b600081519050919050565b600082825260208201905092915050565b60005b83811015610a41578082015181840152602081019050610a26565b60008484015250505050565b6000601f19601f8301169050919050565b6000610a6982610a07565b610a738185610a12565b9350610a83818560208601610a23565b610a8c81610a4d565b840191505092915050565b6000819050919050565b610aaa81610a97565b82525050565b610ab98161099c565b82525050565b600060a0830160008301518482036000860152610adc8282610a5e565b91505060208301518482036020860152610af68282610a5e565b9150506040830151610b0b6040860182610aa1565b5060608301518482036060860152610b238282610a5e565b9150506080830151610b386080860182610ab0565b508091505092915050565b60006020820190508181036000830152610b5d8184610abf565b905092915050565b600082825260208201905092915050565b6000610b8182610a07565b610b8b8185610b65565b9350610b9b818560208601610a23565b610ba481610a4d565b840191505092915050565b610bb881610a97565b82525050565b610bc78161099c565b82525050565b600060a0820190508181036000830152610be78188610b76565b90508181036020830152610bfb8187610b76565b9050610c0a6040830186610baf565b8181036060830152610c1c8185610b76565b9050610c2b6080830184610bbe565b9695505050505050565b60008115159050919050565b610c4a81610c35565b82525050565b6000602082019050610c656000830184610c41565b92915050565b600080fd5b600080fd5b7f4e487b7100000000000000000000000000000000000000000000000000000000600052604160045260246000fd5b610cad82610a4d565b810181811067ffffffffffffffff82111715610ccc57610ccb610c75565b5b80604052505050565b6000610cdf610968565b9050610ceb8282610ca4565b919050565b600067ffffffffffffffff821115610d0b57610d0a610c75565b5b610d1482610a4d565b9050602081019050919050565b82818337600083830152505050565b6000610d43610d3e84610cf0565b610cd5565b905082815260208101848484011115610d5f57610d5e610c70565b5b610d6a848285610d21565b509392505050565b600082601f830112610d8757610d86610c6b565b5b8135610d97848260208601610d30565b91505092915050565b600080600060608486031215610db957610db8610972565b5b600084013567ffffffffffffffff811115610dd757610dd6610977565b5b610de386828701610d72565b935050602084013567ffffffffffffffff811115610e0457610e03610977565b5b610e1086828701610d72565b925050604084013567ffffffffffffffff811115610e3157610e30610977565b5b610e3d86828701610d72565b9150509250925092565b7f4e487b7100000000000000000000000000000000000000000000000000000000600052602260045260246000fd5b60006002820490506001821680610e8e57607f821691505b602082108103610ea157610ea0610e47565b5b50919050565b7f55736572206e6f7420666f756e64000000000000000000000000000000000000600082015250565b6000610edd600e83610b65565b9150610ee882610ea7565b602082019050919050565b60006020820190508181036000830152610f0c81610ed0565b9050919050565b7f416c726561647920726567697374657265640000000000000000000000000000600082015250565b6000610f49601283610b65565b9150610f5482610f13565b602082019050919050565b60006020820190508181036000830152610f7881610f3c565b9050919050565b600081905092915050565b6000610f9582610a07565b610f9f8185610f7f565b9350610faf818560208601610a23565b80840191505092915050565b6000610fc78284610f8a565b915081905092915050565b7f557365726e616d6520616c72656164792074616b656e00000000000000000000600082015250565b6000611008601683610b65565b915061101382610fd2565b602082019050919050565b6000602082019050818103600083015261103781610ffb565b9050919050565b7f557365726e616d652063616e6e6f7420626520656d7074790000000000000000600082015250565b6000611074601883610b65565b915061107f8261103e565b602082019050919050565b600060208201905081810360008301526110a381611067565b9050919050565b60008190508160005260206000209050919050565b60006020601f8301049050919050565b600082821b905092915050565b60006008830261110c7fffffffffffffffffffffffffffffffffffffffffffffffffffffffffffffffff826110cf565b61111686836110cf565b95508019841693508086168417925050509392505050565b6000819050919050565b6000819050919050565b600061115d6111586111538461112e565b611138565b61112e565b9050919050565b6000819050919050565b61117783611142565b61118b61118382611164565b8484546110dc565b825550505050565b600090565b6111a0611193565b6111ab81848461116e565b505050565b5b818110156111cf576111c4600082611198565b6001810190506111b1565b5050565b601f821115611214576111e5816110aa565b6111ee846110bf565b810160208510156111fd578190505b611211611209856110bf565b8301826111b0565b50505b505050565b600082821c905092915050565b600061123760001984600802611219565b1980831691505092915050565b60006112508383611226565b9150826002028217905092915050565b61126982610a07565b67ffffffffffffffff81111561128257611281610c75565b5b61128c8254610e76565b6112978282856111d3565b600060209050601f8311600181146112ca57600084156112b8578287015190505b6112c28582611244565b86555061132a565b601f1984166112d8866110aa565b60005b82811015611300578489015182556001820191506020850194506020810190506112db565b8683101561131d5784890151611319601f891682611226565b8355505b6001600288020188555050505b505050505050565b6000602082019050818103600083015261134c8184610b76565b90509291505056fea2646970667358221220ca0c47d95d90f5995392e1dfc4673debbb4cf284a3584fc6fa96e7ea0025116464736f6c634300081c0033",
    "linkReferences": {},
    "deployedLinkReferences": {}
}