{
    "_format": "hh-sol-artifact-1",
    "contractName": "VideoVerification",
    "sourceName": "contracts/VideoVerification.sol",
    "abi": [
        {
            "anonymous": false,
            "inputs": [
                {
                    "indexed": true,
                    "internalType": "string",
                    "name": "videoId",
                    "type": "string"
                },
                {
                    "indexed": true,
                    "internalType": "address",
                    "name": "uploader",
                    "type": "address"
                }
            ],
            "name": "DeepfakeAttemptLogged",
            "type": "event"
        },
        {
            "anonymous": false,
            "inputs": [
                {
                    "indexed": true,
                    "internalType": "string",
                    "name": "videoId",
                    "type": "string"
                },
                {
                    "indexed": true,
                    "internalType": "address",
                    "name": "uploader",
                    "type": "address"
                }
            ],
            "name": "GenuineVideoUploaded",
            "type": "event"
        },
        {
            "anonymous": false,
            "inputs": [
                {
                    "indexed": true,
                    "internalType": "string",
                    "name": "originalVideoId",
                    "type": "string"
                },
                {
                    "indexed": true,
                    "internalType": "address",
                    "name": "newUploader",
                    "type": "address"
                },
                {
                    "indexed": true,
                    "internalType": "string",
                    "name": "newVideoId",
                    "type": "string"
                }
            ],
            "name": "PermissionGranted",
            "type": "event"
        },
        {
            "anonymous": false,
            "inputs": [
                {
                    "indexed": true,
                    "internalType": "string",
                    "name": "originalVideoId",
                    "type": "string"
                },
                {
                    "indexed": true,
                    "internalType": "address",
                    "name": "requester",
                    "type": "address"
                }
            ],
            "name": "PermissionRequested",
            "type": "event"
        },
        {
            "inputs": [
                {
                    "internalType": "uint256",
                    "name": "",
                    "type": "uint256"
                }
            ],
            "name": "deepfakeAttempts",
            "outputs": [
                {
                    "internalType": "string",
                    "name": "videoId",
                    "type": "string"
                },
                {
                    "internalType": "address",
                    "name": "attemptedBy",
                    "type": "address"
                },
                {
                    "internalType": "uint256",
                    "name": "timestamp",
                    "type": "uint256"
                }
            ],
            "stateMutability": "view",
            "type": "function"
        },
        {
            "inputs": [
                {
                    "internalType": "address",
                    "name": "",
                    "type": "address"
                }
            ],
            "name": "genuineScore",
            "outputs": [
                {
                    "internalType": "uint256",
                    "name": "",
                    "type": "uint256"
                }
            ],
            "stateMutability": "view",
            "type": "function"
        },
        {
            "inputs": [
                {
                    "internalType": "uint256",
                    "name": "index",
                    "type": "uint256"
                }
            ],
            "name": "getDeepfakeAttempt",
            "outputs": [
                {
                    "internalType": "string",
                    "name": "videoId",
                    "type": "string"
                },
                {
                    "internalType": "address",
                    "name": "attemptedBy",
                    "type": "address"
                },
                {
                    "internalType": "uint256",
                    "name": "timestamp",
                    "type": "uint256"
                }
            ],
            "stateMutability": "view",
            "type": "function"
        },
        {
            "inputs": [],
            "name": "getDeepfakeAttemptCount",
            "outputs": [
                {
                    "internalType": "uint256",
                    "name": "",
                    "type": "uint256"
                }
            ],
            "stateMutability": "view",
            "type": "function"
        },
        {
            "inputs": [
                {
                    "internalType": "uint256",
                    "name": "index",
                    "type": "uint256"
                }
            ],
            "name": "getPermissionGrant",
            "outputs": [
                {
                    "internalType": "string",
                    "name": "originalVideoId",
                    "type": "string"
                },
                {
                    "internalType": "address",
                    "name": "grantedTo",
                    "type": "address"
                },
                {
                    "internalType": "string",
                    "name": "reusedVideoId",
                    "type": "string"
                },
                {
                    "internalType": "uint256",
                    "name": "timestamp",
                    "type": "uint256"
                }
            ],
            "stateMutability": "view",
            "type": "function"
        },
        {
            "inputs": [],
            "name": "getPermissionGrantCount",
            "outputs": [
                {
                    "internalType": "uint256",
                    "name": "",
                    "type": "uint256"
                }
            ],
            "stateMutability": "view",
            "type": "function"
        },
        {
            "inputs": [
                {
                    "internalType": "string",
                    "name": "_videoId",
                    "type": "string"
                }
            ],
            "name": "getPermissionRequests",
            "outputs": [
                {
                    "internalType": "address[]",
                    "name": "",
                    "type": "address[]"
                }
            ],
            "stateMutability": "view",
            "type": "function"
        },
        {
            "inputs": [
                {
                    "internalType": "address",
                    "name": "user",
                    "type": "address"
                }
            ],
            "name": "getUserGenuineScore",
            "outputs": [
                {
                    "internalType": "uint256",
                    "name": "",
                    "type": "uint256"
                }
            ],
            "stateMutability": "view",
            "type": "function"
        },
        {
            "inputs": [
                {
                    "internalType": "string",
                    "name": "_videoId",
                    "type": "string"
                }
            ],
            "name": "getVideoDetails",
            "outputs": [
                {
                    "internalType": "address",
                    "name": "uploader",
                    "type": "address"
                },
                {
                    "internalType": "bool",
                    "name": "isDeepfake",
                    "type": "bool"
                },
                {
                    "internalType": "uint256",
                    "name": "timestamp",
                    "type": "uint256"
                },
                {
                    "internalType": "address",
                    "name": "originalOwner",
                    "type": "address"
                },
                {
                    "internalType": "bool",
                    "name": "permissionedReuse",
                    "type": "bool"
                }
            ],
            "stateMutability": "view",
            "type": "function"
        },
        {
            "inputs": [
                {
                    "internalType": "string",
                    "name": "_originalVideoId",
                    "type": "string"
                },
                {
                    "internalType": "address",
                    "name": "_newUploader",
                    "type": "address"
                },
                {
                    "internalType": "string",
                    "name": "_newVideoId",
                    "type": "string"
                }
            ],
            "name": "grantPermission",
            "outputs": [],
            "stateMutability": "nonpayable",
            "type": "function"
        },
        {
            "inputs": [
                {
                    "internalType": "uint256",
                    "name": "",
                    "type": "uint256"
                }
            ],
            "name": "grantedPermissions",
            "outputs": [
                {
                    "internalType": "string",
                    "name": "originalVideoId",
                    "type": "string"
                },
                {
                    "internalType": "address",
                    "name": "grantedTo",
                    "type": "address"
                },
                {
                    "internalType": "string",
                    "name": "reusedVideoId",
                    "type": "string"
                },
                {
                    "internalType": "uint256",
                    "name": "timestamp",
                    "type": "uint256"
                }
            ],
            "stateMutability": "view",
            "type": "function"
        },
        {
            "inputs": [
                {
                    "internalType": "string",
                    "name": "_videoId",
                    "type": "string"
                },
                {
                    "internalType": "string",
                    "name": "_phash",
                    "type": "string"
                },
                {
                    "internalType": "string",
                    "name": "_dctHash",
                    "type": "string"
                },
                {
                    "internalType": "string",
                    "name": "_histHash",
                    "type": "string"
                },
                {
                    "internalType": "string",
                    "name": "_aiFeaturesHash",
                    "type": "string"
                }
            ],
            "name": "logDeepfakeAttempt",
            "outputs": [],
            "stateMutability": "nonpayable",
            "type": "function"
        },
        {
            "inputs": [
                {
                    "internalType": "string",
                    "name": "_videoId",
                    "type": "string"
                }
            ],
            "name": "requestPermission",
            "outputs": [],
            "stateMutability": "nonpayable",
            "type": "function"
        },
        {
            "inputs": [
                {
                    "internalType": "string",
                    "name": "_videoId",
                    "type": "string"
                },
                {
                    "internalType": "string",
                    "name": "_phash",
                    "type": "string"
                },
                {
                    "internalType": "string",
                    "name": "_dctHash",
                    "type": "string"
                },
                {
                    "internalType": "string",
                    "name": "_histHash",
                    "type": "string"
                },
                {
                    "internalType": "string",
                    "name": "_aiFeaturesHash",
                    "type": "string"
                }
            ],
            "name": "uploadGenuineVideo",
            "outputs": [],
            "stateMutability": "nonpayable",
            "type": "function"
        },
        {
            "inputs": [
                {
                    "internalType": "string",
                    "name": "",
                    "type": "string"
                }
            ],
            "name": "videos",
            "outputs": [
                {
                    "internalType": "string",
                    "name": "videoId",
                    "type": "string"
                },
                {
                    "internalType": "address",
                    "name": "uploader",
                    "type": "address"
                },
                {
                    "internalType": "string",
                    "name": "phash",
                    "type": "string"
                },
                {
                    "internalType": "string",
                    "name": "dctHash",
                    "type": "string"
                },
                {
                    "internalType": "string",
                    "name": "histHash",
                    "type": "string"
                },
                {
                    "internalType": "string",
                    "name": "aiFeaturesHash",
                    "type": "string"
                },
                {
                    "internalType": "bool",
                    "name": "isDeepfake",
                    "type": "bool"
                },
                {
                    "internalType": "uint256",
                    "name": "timestamp",
                    "type": "uint256"
                },
                {
                    "internalType": "address",
                    "name": "originalOwner",
                    "type": "address"
                },
                {
                    "internalType": "bool",
                    "name": "permissionedReuse",
                    "type": "bool"
                }
            ],
            "stateMutability": "view",
            "type": "function"
        }
    ],
    "bytecode": "0x6080604052348015600f57600080fd5b506130268061001f6000396000f3fe608060405234801561001057600080fd5b50600436106100f55760003560e01c80635ccb30051161009757806394f49ebc1161006657806394f49ebc146102bd578063ba634e77146102ef578063cbe7ae9d1461031f578063df4d576414610351576100f5565b80635ccb3005146102055780636ef4de9e146102385780638274972d1461027157806383b531bf146102a1576100f5565b80631ea84723116100d35780631ea8472314610164578063273b5a0b146101985780633235a09b146101b457806344fab267146101d2576100f5565b8063024dffb9146100fa578063166c17411461011857806317993b9614610134575b600080fd5b61010261036d565b60405161010f9190612257565b60405180910390f35b610132600480360381019061012d91906123cc565b61037a565b005b61014e600480360381019061014991906124d3565b610791565b60405161015b919061260c565b60405180910390f35b61017e600480360381019061017991906124d3565b610840565b60405161018f959493929190612658565b60405180910390f35b6101b260048036038101906101ad91906126d7565b610cf8565b005b6101bc6113e3565b6040516101c99190612257565b60405180910390f35b6101ec60048036038101906101e7919061278e565b6113f0565b6040516101fc949392919061283a565b60405180910390f35b61021f600480360381019061021a919061278e565b611560565b60405161022f949392919061283a565b60405180910390f35b610252600480360381019061024d91906124d3565b611740565b6040516102689a9998979695949392919061288d565b60405180910390f35b61028b6004803603810190610286919061294c565b611aac565b6040516102989190612257565b60405180910390f35b6102bb60048036038101906102b691906123cc565b611af5565b005b6102d760048036038101906102d2919061278e565b611e17565b6040516102e693929190612979565b60405180910390f35b6103096004803603810190610304919061294c565b611ef9565b6040516103169190612257565b60405180910390f35b6103396004803603810190610334919061278e565b611f11565b60405161034893929190612979565b60405180910390f35b61036b600480360381019061036691906124d3565b612056565b005b6000600280549050905090565b60606040518061016001604052808781526020013373ffffffffffffffffffffffffffffffffffffffff168152602001868152602001858152602001848152602001838152602001600115158152602001428152602001828152602001600073ffffffffffffffffffffffffffffffffffffffff1681526020016000151581525060008760405161040b91906129f3565b9081526020016040518091039020600082015181600001908161042e9190612c16565b5060208201518160010160006101000a81548173ffffffffffffffffffffffffffffffffffffffff021916908373ffffffffffffffffffffffffffffffffffffffff160217905550604082015181600201908161048b9190612c16565b5060608201518160030190816104a19190612c16565b5060808201518160040190816104b79190612c16565b5060a08201518160050190816104cd9190612c16565b5060c08201518160060160006101000a81548160ff02191690831515021790555060e08201518160070155610100820151816008019080519060200190610515929190612197565b506101208201518160090160006101000a81548173ffffffffffffffffffffffffffffffffffffffff021916908373ffffffffffffffffffffffffffffffffffffffff1602179055506101408201518160090160146101000a81548160ff021916908315150217905550905050600a600160003373ffffffffffffffffffffffffffffffffffffffff1673ffffffffffffffffffffffffffffffffffffffff168152602001908152602001600020541061062557600a600160003373ffffffffffffffffffffffffffffffffffffffff1673ffffffffffffffffffffffffffffffffffffffff16815260200190815260200160002060008282546106199190612d17565b9250508190555061066b565b6000600160003373ffffffffffffffffffffffffffffffffffffffff1673ffffffffffffffffffffffffffffffffffffffff168152602001908152602001600020819055505b600260405180606001604052808881526020013373ffffffffffffffffffffffffffffffffffffffff16815260200142815250908060018154018082558091505060019003906000526020600020906003020160009091909190915060008201518160000190816106dc9190612c16565b5060208201518160010160006101000a81548173ffffffffffffffffffffffffffffffffffffffff021916908373ffffffffffffffffffffffffffffffffffffffff1602179055506040820151816002015550503373ffffffffffffffffffffffffffffffffffffffff168660405161075591906129f3565b60405180910390207ff62b15d7c5d80574cea708c8b38a9cb62990d5b39eec85238347d3681064989e60405160405180910390a3505050505050565b60606000826040516107a391906129f3565b908152602001604051809103902060080180548060200260200160405190810160405280929190818152602001828054801561083457602002820191906000526020600020905b8160009054906101000a900473ffffffffffffffffffffffffffffffffffffffff1673ffffffffffffffffffffffffffffffffffffffff16815260200190600101908083116107ea575b50505050509050919050565b60008060008060008060008760405161085991906129f3565b90815260200160405180910390206040518061016001604052908160008201805461088390612a39565b80601f01602080910402602001604051908101604052809291908181526020018280546108af90612a39565b80156108fc5780601f106108d1576101008083540402835291602001916108fc565b820191906000526020600020905b8154815290600101906020018083116108df57829003601f168201915b505050505081526020016001820160009054906101000a900473ffffffffffffffffffffffffffffffffffffffff1673ffffffffffffffffffffffffffffffffffffffff1673ffffffffffffffffffffffffffffffffffffffff16815260200160028201805461096b90612a39565b80601f016020809104026020016040519081016040528092919081815260200182805461099790612a39565b80156109e45780601f106109b9576101008083540402835291602001916109e4565b820191906000526020600020905b8154815290600101906020018083116109c757829003601f168201915b505050505081526020016003820180546109fd90612a39565b80601f0160208091040260200160405190810160405280929190818152602001828054610a2990612a39565b8015610a765780601f10610a4b57610100808354040283529160200191610a76565b820191906000526020600020905b815481529060010190602001808311610a5957829003601f168201915b50505050508152602001600482018054610a8f90612a39565b80601f0160208091040260200160405190810160405280929190818152602001828054610abb90612a39565b8015610b085780601f10610add57610100808354040283529160200191610b08565b820191906000526020600020905b815481529060010190602001808311610aeb57829003601f168201915b50505050508152602001600582018054610b2190612a39565b80601f0160208091040260200160405190810160405280929190818152602001828054610b4d90612a39565b8015610b9a5780601f10610b6f57610100808354040283529160200191610b9a565b820191906000526020600020905b815481529060010190602001808311610b7d57829003601f168201915b505050505081526020016006820160009054906101000a900460ff161515151581526020016007820154815260200160088201805480602002602001604051908101604052809291908181526020018280548015610c4d57602002820191906000526020600020905b8160009054906101000a900473ffffffffffffffffffffffffffffffffffffffff1673ffffffffffffffffffffffffffffffffffffffff1681526020019060010190808311610c03575b505050505081526020016009820160009054906101000a900473ffffffffffffffffffffffffffffffffffffffff1673ffffffffffffffffffffffffffffffffffffffff1673ffffffffffffffffffffffffffffffffffffffff1681526020016009820160149054906101000a900460ff161515151581525050905080602001518160c001518260e00151836101200151846101400151955095509550955095505091939590929450565b60008084604051610d0991906129f3565b908152602001604051809103902090506000816007015403610d60576040517f08c379a0000000000000000000000000000000000000000000000000000000008152600401610d5790612d97565b60405180910390fd5b3373ffffffffffffffffffffffffffffffffffffffff168160010160009054906101000a900473ffffffffffffffffffffffffffffffffffffffff1673ffffffffffffffffffffffffffffffffffffffff1614610df2576040517f08c379a0000000000000000000000000000000000000000000000000000000008152600401610de990612e29565b60405180910390fd5b60008083604051610e0391906129f3565b90815260200160405180910390206007015414610e55576040517f08c379a0000000000000000000000000000000000000000000000000000000008152600401610e4c90612e95565b60405180910390fd5b60606040518061016001604052808481526020018573ffffffffffffffffffffffffffffffffffffffff168152602001836002018054610e9490612a39565b80601f0160208091040260200160405190810160405280929190818152602001828054610ec090612a39565b8015610f0d5780601f10610ee257610100808354040283529160200191610f0d565b820191906000526020600020905b815481529060010190602001808311610ef057829003601f168201915b50505050508152602001836003018054610f2690612a39565b80601f0160208091040260200160405190810160405280929190818152602001828054610f5290612a39565b8015610f9f5780601f10610f7457610100808354040283529160200191610f9f565b820191906000526020600020905b815481529060010190602001808311610f8257829003601f168201915b50505050508152602001836004018054610fb890612a39565b80601f0160208091040260200160405190810160405280929190818152602001828054610fe490612a39565b80156110315780601f1061100657610100808354040283529160200191611031565b820191906000526020600020905b81548152906001019060200180831161101457829003601f168201915b5050505050815260200183600501805461104a90612a39565b80601f016020809104026020016040519081016040528092919081815260200182805461107690612a39565b80156110c35780601f10611098576101008083540402835291602001916110c3565b820191906000526020600020905b8154815290600101906020018083116110a657829003601f168201915b505050505081526020016000151581526020014281526020018281526020013373ffffffffffffffffffffffffffffffffffffffff1681526020016001151581525060008460405161111591906129f3565b908152602001604051809103902060008201518160000190816111389190612c16565b5060208201518160010160006101000a81548173ffffffffffffffffffffffffffffffffffffffff021916908373ffffffffffffffffffffffffffffffffffffffff16021790555060408201518160020190816111959190612c16565b5060608201518160030190816111ab9190612c16565b5060808201518160040190816111c19190612c16565b5060a08201518160050190816111d79190612c16565b5060c08201518160060160006101000a81548160ff02191690831515021790555060e0820151816007015561010082015181600801908051906020019061121f929190612197565b506101208201518160090160006101000a81548173ffffffffffffffffffffffffffffffffffffffff021916908373ffffffffffffffffffffffffffffffffffffffff1602179055506101408201518160090160146101000a81548160ff021916908315150217905550905050600360405180608001604052808781526020018673ffffffffffffffffffffffffffffffffffffffff16815260200185815260200142815250908060018154018082558091505060019003906000526020600020906004020160009091909190915060008201518160000190816113039190612c16565b5060208201518160010160006101000a81548173ffffffffffffffffffffffffffffffffffffffff021916908373ffffffffffffffffffffffffffffffffffffffff16021790555060408201518160020190816113609190612c16565b506060820151816003015550508260405161137b91906129f3565b60405180910390208473ffffffffffffffffffffffffffffffffffffffff16866040516113a891906129f3565b60405180910390207fabcc0786e06b0ab4a3dbe2e2ba0ad676a66ef3d42ddf9e0d77b7597ef8cf010b60405160405180910390a45050505050565b6000600380549050905090565b6003818154811061140057600080fd5b906000526020600020906004020160009150905080600001805461142390612a39565b80601f016020809104026020016040519081016040528092919081815260200182805461144f90612a39565b801561149c5780601f106114715761010080835404028352916020019161149c565b820191906000526020600020905b81548152906001019060200180831161147f57829003601f168201915b5050505050908060010160009054906101000a900473ffffffffffffffffffffffffffffffffffffffff16908060020180546114d790612a39565b80601f016020809104026020016040519081016040528092919081815260200182805461150390612a39565b80156115505780601f1061152557610100808354040283529160200191611550565b820191906000526020600020905b81548152906001019060200180831161153357829003601f168201915b5050505050908060030154905084565b6060600060606000806003868154811061157d5761157c612eb5565b5b90600052602060002090600402016040518060800160405290816000820180546115a690612a39565b80601f01602080910402602001604051908101604052809291908181526020018280546115d290612a39565b801561161f5780601f106115f45761010080835404028352916020019161161f565b820191906000526020600020905b81548152906001019060200180831161160257829003601f168201915b505050505081526020016001820160009054906101000a900473ffffffffffffffffffffffffffffffffffffffff1673ffffffffffffffffffffffffffffffffffffffff1673ffffffffffffffffffffffffffffffffffffffff16815260200160028201805461168e90612a39565b80601f01602080910402602001604051908101604052809291908181526020018280546116ba90612a39565b80156117075780601f106116dc57610100808354040283529160200191611707565b820191906000526020600020905b8154815290600101906020018083116116ea57829003601f168201915b50505050508152602001600382015481525050905080600001518160200151826040015183606001519450945094509450509193509193565b60008180516020810182018051848252602083016020850120818352809550505050505060009150905080600001805461177990612a39565b80601f01602080910402602001604051908101604052809291908181526020018280546117a590612a39565b80156117f25780601f106117c7576101008083540402835291602001916117f2565b820191906000526020600020905b8154815290600101906020018083116117d557829003601f168201915b5050505050908060010160009054906101000a900473ffffffffffffffffffffffffffffffffffffffff169080600201805461182d90612a39565b80601f016020809104026020016040519081016040528092919081815260200182805461185990612a39565b80156118a65780601f1061187b576101008083540402835291602001916118a6565b820191906000526020600020905b81548152906001019060200180831161188957829003601f168201915b5050505050908060030180546118bb90612a39565b80601f01602080910402602001604051908101604052809291908181526020018280546118e790612a39565b80156119345780601f1061190957610100808354040283529160200191611934565b820191906000526020600020905b81548152906001019060200180831161191757829003601f168201915b50505050509080600401805461194990612a39565b80601f016020809104026020016040519081016040528092919081815260200182805461197590612a39565b80156119c25780601f10611997576101008083540402835291602001916119c2565b820191906000526020600020905b8154815290600101906020018083116119a557829003601f168201915b5050505050908060050180546119d790612a39565b80601f0160208091040260200160405190810160405280929190818152602001828054611a0390612a39565b8015611a505780601f10611a2557610100808354040283529160200191611a50565b820191906000526020600020905b815481529060010190602001808311611a3357829003601f168201915b5050505050908060060160009054906101000a900460ff16908060070154908060090160009054906101000a900473ffffffffffffffffffffffffffffffffffffffff16908060090160149054906101000a900460ff1690508a565b6000600160008373ffffffffffffffffffffffffffffffffffffffff1673ffffffffffffffffffffffffffffffffffffffff168152602001908152602001600020549050919050565b60008086604051611b0691906129f3565b90815260200160405180910390206007015414611b58576040517f08c379a0000000000000000000000000000000000000000000000000000000008152600401611b4f90612f30565b60405180910390fd5b60606040518061016001604052808781526020013373ffffffffffffffffffffffffffffffffffffffff168152602001868152602001858152602001848152602001838152602001600015158152602001428152602001828152602001600073ffffffffffffffffffffffffffffffffffffffff16815260200160001515815250600087604051611be991906129f3565b90815260200160405180910390206000820151816000019081611c0c9190612c16565b5060208201518160010160006101000a81548173ffffffffffffffffffffffffffffffffffffffff021916908373ffffffffffffffffffffffffffffffffffffffff1602179055506040820151816002019081611c699190612c16565b506060820151816003019081611c7f9190612c16565b506080820151816004019081611c959190612c16565b5060a0820151816005019081611cab9190612c16565b5060c08201518160060160006101000a81548160ff02191690831515021790555060e08201518160070155610100820151816008019080519060200190611cf3929190612197565b506101208201518160090160006101000a81548173ffffffffffffffffffffffffffffffffffffffff021916908373ffffffffffffffffffffffffffffffffffffffff1602179055506101408201518160090160146101000a81548160ff02191690831515021790555090505060018060003373ffffffffffffffffffffffffffffffffffffffff1673ffffffffffffffffffffffffffffffffffffffff1681526020019081526020016000206000828254611daf9190612f50565b925050819055503373ffffffffffffffffffffffffffffffffffffffff1686604051611ddb91906129f3565b60405180910390207f23f9493c4a32831ffdd91d1b33522c720c66bf6dfd01ec008aefaaa01d3d164c60405160405180910390a3505050505050565b60028181548110611e2757600080fd5b9060005260206000209060030201600091509050806000018054611e4a90612a39565b80601f0160208091040260200160405190810160405280929190818152602001828054611e7690612a39565b8015611ec35780601f10611e9857610100808354040283529160200191611ec3565b820191906000526020600020905b815481529060010190602001808311611ea657829003601f168201915b5050505050908060010160009054906101000a900473ffffffffffffffffffffffffffffffffffffffff16908060020154905083565b60016020528060005260406000206000915090505481565b6060600080600060028581548110611f2c57611f2b612eb5565b5b9060005260206000209060030201604051806060016040529081600082018054611f5590612a39565b80601f0160208091040260200160405190810160405280929190818152602001828054611f8190612a39565b8015611fce5780601f10611fa357610100808354040283529160200191611fce565b820191906000526020600020905b815481529060010190602001808311611fb157829003601f168201915b505050505081526020016001820160009054906101000a900473ffffffffffffffffffffffffffffffffffffffff1673ffffffffffffffffffffffffffffffffffffffff1673ffffffffffffffffffffffffffffffffffffffff1681526020016002820154815250509050806000015181602001518260400151935093509350509193909250565b6000808260405161206791906129f3565b908152602001604051809103902060070154036120b9576040517f08c379a00000000000000000000000000000000000000000000000000000000081526004016120b090612fd0565b60405180910390fd5b6000816040516120c991906129f3565b9081526020016040518091039020600801339080600181540180825580915050600190039060005260206000200160009091909190916101000a81548173ffffffffffffffffffffffffffffffffffffffff021916908373ffffffffffffffffffffffffffffffffffffffff1602179055503373ffffffffffffffffffffffffffffffffffffffff168160405161216091906129f3565b60405180910390207f6583c0cabf55a144b38148d0ac9964c01c1b32de4d5897ae6722b29cd825b3a960405160405180910390a350565b828054828255906000526020600020908101928215612210579160200282015b8281111561220f5782518260006101000a81548173ffffffffffffffffffffffffffffffffffffffff021916908373ffffffffffffffffffffffffffffffffffffffff160217905550916020019190600101906121b7565b5b50905061221d9190612221565b5090565b5b8082111561223a576000816000905550600101612222565b5090565b6000819050919050565b6122518161223e565b82525050565b600060208201905061226c6000830184612248565b92915050565b6000604051905090565b600080fd5b600080fd5b600080fd5b600080fd5b6000601f19601f8301169050919050565b7f4e487b7100000000000000000000000000000000000000000000000000000000600052604160045260246000fd5b6122d982612290565b810181811067ffffffffffffffff821117156122f8576122f76122a1565b5b80604052505050565b600061230b612272565b905061231782826122d0565b919050565b600067ffffffffffffffff821115612337576123366122a1565b5b61234082612290565b9050602081019050919050565b82818337600083830152505050565b600061236f61236a8461231c565b612301565b90508281526020810184848401111561238b5761238a61228b565b5b61239684828561234d565b509392505050565b600082601f8301126123b3576123b2612286565b5b81356123c384826020860161235c565b91505092915050565b600080600080600060a086880312156123e8576123e761227c565b5b600086013567ffffffffffffffff81111561240657612405612281565b5b6124128882890161239e565b955050602086013567ffffffffffffffff81111561243357612432612281565b5b61243f8882890161239e565b945050604086013567ffffffffffffffff8111156124605761245f612281565b5b61246c8882890161239e565b935050606086013567ffffffffffffffff81111561248d5761248c612281565b5b6124998882890161239e565b925050608086013567ffffffffffffffff8111156124ba576124b9612281565b5b6124c68882890161239e565b9150509295509295909350565b6000602082840312156124e9576124e861227c565b5b600082013567ffffffffffffffff81111561250757612506612281565b5b6125138482850161239e565b91505092915050565b600081519050919050565b600082825260208201905092915050565b6000819050602082019050919050565b600073ffffffffffffffffffffffffffffffffffffffff82169050919050565b600061257382612548565b9050919050565b61258381612568565b82525050565b6000612595838361257a565b60208301905092915050565b6000602082019050919050565b60006125b98261251c565b6125c38185612527565b93506125ce83612538565b8060005b838110156125ff5781516125e68882612589565b97506125f1836125a1565b9250506001810190506125d2565b5085935050505092915050565b6000602082019050818103600083015261262681846125ae565b905092915050565b61263781612568565b82525050565b60008115159050919050565b6126528161263d565b82525050565b600060a08201905061266d600083018861262e565b61267a6020830187612649565b6126876040830186612248565b612694606083018561262e565b6126a16080830184612649565b9695505050505050565b6126b481612568565b81146126bf57600080fd5b50565b6000813590506126d1816126ab565b92915050565b6000806000606084860312156126f0576126ef61227c565b5b600084013567ffffffffffffffff81111561270e5761270d612281565b5b61271a8682870161239e565b935050602061272b868287016126c2565b925050604084013567ffffffffffffffff81111561274c5761274b612281565b5b6127588682870161239e565b9150509250925092565b61276b8161223e565b811461277657600080fd5b50565b60008135905061278881612762565b92915050565b6000602082840312156127a4576127a361227c565b5b60006127b284828501612779565b91505092915050565b600081519050919050565b600082825260208201905092915050565b60005b838110156127f55780820151818401526020810190506127da565b60008484015250505050565b600061280c826127bb565b61281681856127c6565b93506128268185602086016127d7565b61282f81612290565b840191505092915050565b600060808201905081810360008301526128548187612801565b9050612863602083018661262e565b81810360408301526128758185612801565b90506128846060830184612248565b95945050505050565b60006101408201905081810360008301526128a8818d612801565b90506128b7602083018c61262e565b81810360408301526128c9818b612801565b905081810360608301526128dd818a612801565b905081810360808301526128f18189612801565b905081810360a08301526129058188612801565b905061291460c0830187612649565b61292160e0830186612248565b61292f61010083018561262e565b61293d610120830184612649565b9b9a5050505050505050505050565b6000602082840312156129625761296161227c565b5b6000612970848285016126c2565b91505092915050565b600060608201905081810360008301526129938186612801565b90506129a2602083018561262e565b6129af6040830184612248565b949350505050565b600081905092915050565b60006129cd826127bb565b6129d781856129b7565b93506129e78185602086016127d7565b80840191505092915050565b60006129ff82846129c2565b915081905092915050565b7f4e487b7100000000000000000000000000000000000000000000000000000000600052602260045260246000fd5b60006002820490506001821680612a5157607f821691505b602082108103612a6457612a63612a0a565b5b50919050565b60008190508160005260206000209050919050565b60006020601f8301049050919050565b600082821b905092915050565b600060088302612acc7fffffffffffffffffffffffffffffffffffffffffffffffffffffffffffffffff82612a8f565b612ad68683612a8f565b95508019841693508086168417925050509392505050565b6000819050919050565b6000612b13612b0e612b098461223e565b612aee565b61223e565b9050919050565b6000819050919050565b612b2d83612af8565b612b41612b3982612b1a565b848454612a9c565b825550505050565b600090565b612b56612b49565b612b61818484612b24565b505050565b5b81811015612b8557612b7a600082612b4e565b600181019050612b67565b5050565b601f821115612bca57612b9b81612a6a565b612ba484612a7f565b81016020851015612bb3578190505b612bc7612bbf85612a7f565b830182612b66565b50505b505050565b600082821c905092915050565b6000612bed60001984600802612bcf565b1980831691505092915050565b6000612c068383612bdc565b9150826002028217905092915050565b612c1f826127bb565b67ffffffffffffffff811115612c3857612c376122a1565b5b612c428254612a39565b612c4d828285612b89565b600060209050601f831160018114612c805760008415612c6e578287015190505b612c788582612bfa565b865550612ce0565b601f198416612c8e86612a6a565b60005b82811015612cb657848901518255600182019150602085019450602081019050612c91565b86831015612cd35784890151612ccf601f891682612bdc565b8355505b6001600288020188555050505b505050505050565b7f4e487b7100000000000000000000000000000000000000000000000000000000600052601160045260246000fd5b6000612d228261223e565b9150612d2d8361223e565b9250828203905081811115612d4557612d44612ce8565b5b92915050565b7f4f726967696e616c20766964656f206e6f7420666f756e640000000000000000600082015250565b6000612d816018836127c6565b9150612d8c82612d4b565b602082019050919050565b60006020820190508181036000830152612db081612d74565b9050919050565b7f4f6e6c79206f726967696e616c2075706c6f616465722063616e206772616e7460008201527f207065726d697373696f6e000000000000000000000000000000000000000000602082015250565b6000612e13602b836127c6565b9150612e1e82612db7565b604082019050919050565b60006020820190508181036000830152612e4281612e06565b9050919050565b7f4e657720766964656f496420616c726561647920657869737473000000000000600082015250565b6000612e7f601a836127c6565b9150612e8a82612e49565b602082019050919050565b60006020820190508181036000830152612eae81612e72565b9050919050565b7f4e487b7100000000000000000000000000000000000000000000000000000000600052603260045260246000fd5b7f566964656f20616c726561647920657869737473000000000000000000000000600082015250565b6000612f1a6014836127c6565b9150612f2582612ee4565b602082019050919050565b60006020820190508181036000830152612f4981612f0d565b9050919050565b6000612f5b8261223e565b9150612f668361223e565b9250828201905080821115612f7e57612f7d612ce8565b5b92915050565b7f566964656f206e6f7420666f756e640000000000000000000000000000000000600082015250565b6000612fba600f836127c6565b9150612fc582612f84565b602082019050919050565b60006020820190508181036000830152612fe981612fad565b905091905056fea264697066735822122061ecc34b3279c752d16ee88203e56dc83445878aa717f7c32712362f1d16db4864736f6c634300081c0033",
    "linkReferences": {},
    "deployedLinkReferences": {}
}