{
  "_format": "hh-sol-artifact-1",
  "contractName": "VideoVerification",
  "sourceName": "contracts/VideoVerification.sol",
  "abi": [
    {
      "anonymous": false,
      "inputs": [
        {
          "indexed": true,
          "internalType": "string",
          "name": "videoId",
          "type": "string"
        },
        {
          "indexed": true,
          "internalType": "address",
          "name": "uploader",
          "type": "address"
        }
      ],
      "name": "DeepfakeAttemptLogged",
      "type": "event"
    },
    {
      "anonymous": false,
      "inputs": [
        {
          "indexed": true,
          "internalType": "string",
          "name": "videoId",
          "type": "string"
        },
        {
          "indexed": true,
          "internalType": "address",
          "name": "uploader",
          "type": "address"
        }
      ],
      "name": "GenuineVideoUploaded",
      "type": "event"
    },
    {
      "anonymous": false,
      "inputs": [
        {
          "indexed": true,
          "internalType": "string",
          "name": "originalVideoId",
          "type": "string"
        },
        {
          "indexed": true,
          "internalType": "address",
          "name": "newUploader",
          "type": "address"
        },
        {
          "indexed": true,
          "internalType": "string",
          "name": "newVideoId",
          "type": "string"
        }
      ],
      "name": "PermissionGranted",
      "type": "event"
    },
    {
      "anonymous": false,
      "inputs": [
        {
          "indexed": true,
          "internalType": "string",
          "name": "originalVideoId",
          "type": "string"
        },
        {
          "indexed": true,
          "internalType": "address",
          "name": "requester",
          "type": "address"
        }
      ],
      "name": "PermissionRequested",
      "type": "event"
    },
    {
      "inputs": [
        {
          "internalType": "address",
          "name": "",
          "type": "address"
        }
      ],
      "name": "genuineScore",
      "outputs": [
        {
          "internalType": "uint256",
          "name": "",
          "type": "uint256"
        }
      ],
      "stateMutability": "view",
      "type": "function"
    },
    {
      "inputs": [
        {
          "internalType": "string",
          "name": "_videoId",
          "type": "string"
        }
      ],
      "name": "getPermissionRequests",
      "outputs": [
        {
          "internalType": "address[]",
          "name": "",
          "type": "address[]"
        }
      ],
      "stateMutability": "view",
      "type": "function"
    },
    {
      "inputs": [
        {
          "internalType": "address",
          "name": "user",
          "type": "address"
        }
      ],
      "name": "getUserGenuineScore",
      "outputs": [
        {
          "internalType": "uint256",
          "name": "",
          "type": "uint256"
        }
      ],
      "stateMutability": "view",
      "type": "function"
    },
    {
      "inputs": [
        {
          "internalType": "string",
          "name": "_videoId",
          "type": "string"
        }
      ],
      "name": "getVideoDetails",
      "outputs": [
        {
          "internalType": "address",
          "name": "uploader",
          "type": "address"
        },
        {
          "internalType": "bool",
          "name": "isDeepfake",
          "type": "bool"
        },
        {
          "internalType": "uint256",
          "name": "timestamp",
          "type": "uint256"
        },
        {
          "internalType": "address",
          "name": "originalOwner",
          "type": "address"
        },
        {
          "internalType": "bool",
          "name": "permissionedReuse",
          "type": "bool"
        }
      ],
      "stateMutability": "view",
      "type": "function"
    },
    {
      "inputs": [
        {
          "internalType": "string",
          "name": "_originalVideoId",
          "type": "string"
        },
        {
          "internalType": "address",
          "name": "_newUploader",
          "type": "address"
        },
        {
          "internalType": "string",
          "name": "_newVideoId",
          "type": "string"
        }
      ],
      "name": "grantPermission",
      "outputs": [],
      "stateMutability": "nonpayable",
      "type": "function"
    },
    {
      "inputs": [
        {
          "internalType": "string",
          "name": "_videoId",
          "type": "string"
        },
        {
          "internalType": "string",
          "name": "_phash",
          "type": "string"
        },
        {
          "internalType": "string",
          "name": "_dctHash",
          "type": "string"
        },
        {
          "internalType": "string",
          "name": "_histHash",
          "type": "string"
        },
        {
          "internalType": "string",
          "name": "_aiFeaturesHash",
          "type": "string"
        }
      ],
      "name": "logDeepfakeAttempt",
      "outputs": [],
      "stateMutability": "nonpayable",
      "type": "function"
    },
    {
      "inputs": [
        {
          "internalType": "string",
          "name": "_videoId",
          "type": "string"
        }
      ],
      "name": "requestPermission",
      "outputs": [],
      "stateMutability": "nonpayable",
      "type": "function"
    },
    {
      "inputs": [
        {
          "internalType": "string",
          "name": "_videoId",
          "type": "string"
        },
        {
          "internalType": "string",
          "name": "_phash",
          "type": "string"
        },
        {
          "internalType": "string",
          "name": "_dctHash",
          "type": "string"
        },
        {
          "internalType": "string",
          "name": "_histHash",
          "type": "string"
        },
        {
          "internalType": "string",
          "name": "_aiFeaturesHash",
          "type": "string"
        }
      ],
      "name": "uploadGenuineVideo",
      "outputs": [],
      "stateMutability": "nonpayable",
      "type": "function"
    },
    {
      "inputs": [
        {
          "internalType": "string",
          "name": "",
          "type": "string"
        }
      ],
      "name": "videos",
      "outputs": [
        {
          "internalType": "string",
          "name": "videoId",
          "type": "string"
        },
        {
          "internalType": "address",
          "name": "uploader",
          "type": "address"
        },
        {
          "internalType": "string",
          "name": "phash",
          "type": "string"
        },
        {
          "internalType": "string",
          "name": "dctHash",
          "type": "string"
        },
        {
          "internalType": "string",
          "name": "histHash",
          "type": "string"
        },
        {
          "internalType": "string",
          "name": "aiFeaturesHash",
          "type": "string"
        },
        {
          "internalType": "bool",
          "name": "isDeepfake",
          "type": "bool"
        },
        {
          "internalType": "uint256",
          "name": "timestamp",
          "type": "uint256"
        },
        {
          "internalType": "address",
          "name": "originalOwner",
          "type": "address"
        },
        {
          "internalType": "bool",
          "name": "permissionedReuse",
          "type": "bool"
        }
      ],
      "stateMutability": "view",
      "type": "function"
    }
  ],
  "bytecode": "0x6080604052348015600f57600080fd5b5061266e8061001f6000396000f3fe608060405234801561001057600080fd5b50600436106100935760003560e01c80636ef4de9e116100665780636ef4de9e146101345780638274972d1461016d57806383b531bf1461019d578063ba634e77146101b9578063df4d5764146101e957610093565b8063166c17411461009857806317993b96146100b45780631ea84723146100e4578063273b5a0b14610118575b600080fd5b6100b260048036038101906100ad9190611af9565b610205565b005b6100ce60048036038101906100c99190611c00565b610557565b6040516100db9190611d39565b60405180910390f35b6100fe60048036038101906100f99190611c00565b610606565b60405161010f959493929190611d9e565b60405180910390f35b610132600480360381019061012d9190611e1d565b610abe565b005b61014e60048036038101906101499190611c00565b6110c8565b6040516101649a99989796959493929190611f27565b60405180910390f35b61018760048036038101906101829190611fe6565b611434565b6040516101949190612013565b60405180910390f35b6101b760048036038101906101b29190611af9565b61147d565b005b6101d360048036038101906101ce9190611fe6565b61179f565b6040516101e09190612013565b60405180910390f35b61020360048036038101906101fe9190611c00565b6117b7565b005b60606040518061016001604052808781526020013373ffffffffffffffffffffffffffffffffffffffff168152602001868152602001858152602001848152602001838152602001600115158152602001428152602001828152602001600073ffffffffffffffffffffffffffffffffffffffff16815260200160001515815250600087604051610296919061206a565b908152602001604051809103902060008201518160000190816102b9919061228d565b5060208201518160010160006101000a81548173ffffffffffffffffffffffffffffffffffffffff021916908373ffffffffffffffffffffffffffffffffffffffff1602179055506040820151816002019081610316919061228d565b50606082015181600301908161032c919061228d565b506080820151816004019081610342919061228d565b5060a0820151816005019081610358919061228d565b5060c08201518160060160006101000a81548160ff02191690831515021790555060e082015181600701556101008201518160080190805190602001906103a09291906118f8565b506101208201518160090160006101000a81548173ffffffffffffffffffffffffffffffffffffffff021916908373ffffffffffffffffffffffffffffffffffffffff1602179055506101408201518160090160146101000a81548160ff021916908315150217905550905050600a600160003373ffffffffffffffffffffffffffffffffffffffff1673ffffffffffffffffffffffffffffffffffffffff16815260200190815260200160002054106104b057600a600160003373ffffffffffffffffffffffffffffffffffffffff1673ffffffffffffffffffffffffffffffffffffffff16815260200190815260200160002060008282546104a4919061238e565b925050819055506104f6565b6000600160003373ffffffffffffffffffffffffffffffffffffffff1673ffffffffffffffffffffffffffffffffffffffff168152602001908152602001600020819055505b3373ffffffffffffffffffffffffffffffffffffffff168660405161051b919061206a565b60405180910390207ff62b15d7c5d80574cea708c8b38a9cb62990d5b39eec85238347d3681064989e60405160405180910390a3505050505050565b6060600082604051610569919061206a565b90815260200160405180910390206008018054806020026020016040519081016040528092919081815260200182805480156105fa57602002820191906000526020600020905b8160009054906101000a900473ffffffffffffffffffffffffffffffffffffffff1673ffffffffffffffffffffffffffffffffffffffff16815260200190600101908083116105b0575b50505050509050919050565b60008060008060008060008760405161061f919061206a565b908152602001604051809103902060405180610160016040529081600082018054610649906120b0565b80601f0160208091040260200160405190810160405280929190818152602001828054610675906120b0565b80156106c25780601f10610697576101008083540402835291602001916106c2565b820191906000526020600020905b8154815290600101906020018083116106a557829003601f168201915b505050505081526020016001820160009054906101000a900473ffffffffffffffffffffffffffffffffffffffff1673ffffffffffffffffffffffffffffffffffffffff1673ffffffffffffffffffffffffffffffffffffffff168152602001600282018054610731906120b0565b80601f016020809104026020016040519081016040528092919081815260200182805461075d906120b0565b80156107aa5780601f1061077f576101008083540402835291602001916107aa565b820191906000526020600020905b81548152906001019060200180831161078d57829003601f168201915b505050505081526020016003820180546107c3906120b0565b80601f01602080910402602001604051908101604052809291908181526020018280546107ef906120b0565b801561083c5780601f106108115761010080835404028352916020019161083c565b820191906000526020600020905b81548152906001019060200180831161081f57829003601f168201915b50505050508152602001600482018054610855906120b0565b80601f0160208091040260200160405190810160405280929190818152602001828054610881906120b0565b80156108ce5780601f106108a3576101008083540402835291602001916108ce565b820191906000526020600020905b8154815290600101906020018083116108b157829003601f168201915b505050505081526020016005820180546108e7906120b0565b80601f0160208091040260200160405190810160405280929190818152602001828054610913906120b0565b80156109605780601f1061093557610100808354040283529160200191610960565b820191906000526020600020905b81548152906001019060200180831161094357829003601f168201915b505050505081526020016006820160009054906101000a900460ff161515151581526020016007820154815260200160088201805480602002602001604051908101604052809291908181526020018280548015610a1357602002820191906000526020600020905b8160009054906101000a900473ffffffffffffffffffffffffffffffffffffffff1673ffffffffffffffffffffffffffffffffffffffff16815260200190600101908083116109c9575b505050505081526020016009820160009054906101000a900473ffffffffffffffffffffffffffffffffffffffff1673ffffffffffffffffffffffffffffffffffffffff1673ffffffffffffffffffffffffffffffffffffffff1681526020016009820160149054906101000a900460ff161515151581525050905080602001518160c001518260e00151836101200151846101400151955095509550955095505091939590929450565b60008084604051610acf919061206a565b908152602001604051809103902090506000816007015403610b26576040517f08c379a0000000000000000000000000000000000000000000000000000000008152600401610b1d9061240e565b60405180910390fd5b3373ffffffffffffffffffffffffffffffffffffffff168160010160009054906101000a900473ffffffffffffffffffffffffffffffffffffffff1673ffffffffffffffffffffffffffffffffffffffff1614610bb8576040517f08c379a0000000000000000000000000000000000000000000000000000000008152600401610baf906124a0565b60405180910390fd5b60008083604051610bc9919061206a565b90815260200160405180910390206007015414610c1b576040517f08c379a0000000000000000000000000000000000000000000000000000000008152600401610c129061250c565b60405180910390fd5b60606040518061016001604052808481526020018573ffffffffffffffffffffffffffffffffffffffff168152602001836002018054610c5a906120b0565b80601f0160208091040260200160405190810160405280929190818152602001828054610c86906120b0565b8015610cd35780601f10610ca857610100808354040283529160200191610cd3565b820191906000526020600020905b815481529060010190602001808311610cb657829003601f168201915b50505050508152602001836003018054610cec906120b0565b80601f0160208091040260200160405190810160405280929190818152602001828054610d18906120b0565b8015610d655780601f10610d3a57610100808354040283529160200191610d65565b820191906000526020600020905b815481529060010190602001808311610d4857829003601f168201915b50505050508152602001836004018054610d7e906120b0565b80601f0160208091040260200160405190810160405280929190818152602001828054610daa906120b0565b8015610df75780601f10610dcc57610100808354040283529160200191610df7565b820191906000526020600020905b815481529060010190602001808311610dda57829003601f168201915b50505050508152602001836005018054610e10906120b0565b80601f0160208091040260200160405190810160405280929190818152602001828054610e3c906120b0565b8015610e895780601f10610e5e57610100808354040283529160200191610e89565b820191906000526020600020905b815481529060010190602001808311610e6c57829003601f168201915b505050505081526020016000151581526020014281526020018281526020013373ffffffffffffffffffffffffffffffffffffffff16815260200160011515815250600084604051610edb919061206a565b90815260200160405180910390206000820151816000019081610efe919061228d565b5060208201518160010160006101000a81548173ffffffffffffffffffffffffffffffffffffffff021916908373ffffffffffffffffffffffffffffffffffffffff1602179055506040820151816002019081610f5b919061228d565b506060820151816003019081610f71919061228d565b506080820151816004019081610f87919061228d565b5060a0820151816005019081610f9d919061228d565b5060c08201518160060160006101000a81548160ff02191690831515021790555060e08201518160070155610100820151816008019080519060200190610fe59291906118f8565b506101208201518160090160006101000a81548173ffffffffffffffffffffffffffffffffffffffff021916908373ffffffffffffffffffffffffffffffffffffffff1602179055506101408201518160090160146101000a81548160ff02191690831515021790555090505082604051611060919061206a565b60405180910390208473ffffffffffffffffffffffffffffffffffffffff168660405161108d919061206a565b60405180910390207fabcc0786e06b0ab4a3dbe2e2ba0ad676a66ef3d42ddf9e0d77b7597ef8cf010b60405160405180910390a45050505050565b600081805160208101820180518482526020830160208501208183528095505050505050600091509050806000018054611101906120b0565b80601f016020809104026020016040519081016040528092919081815260200182805461112d906120b0565b801561117a5780601f1061114f5761010080835404028352916020019161117a565b820191906000526020600020905b81548152906001019060200180831161115d57829003601f168201915b5050505050908060010160009054906101000a900473ffffffffffffffffffffffffffffffffffffffff16908060020180546111b5906120b0565b80601f01602080910402602001604051908101604052809291908181526020018280546111e1906120b0565b801561122e5780601f106112035761010080835404028352916020019161122e565b820191906000526020600020905b81548152906001019060200180831161121157829003601f168201915b505050505090806003018054611243906120b0565b80601f016020809104026020016040519081016040528092919081815260200182805461126f906120b0565b80156112bc5780601f10611291576101008083540402835291602001916112bc565b820191906000526020600020905b81548152906001019060200180831161129f57829003601f168201915b5050505050908060040180546112d1906120b0565b80601f01602080910402602001604051908101604052809291908181526020018280546112fd906120b0565b801561134a5780601f1061131f5761010080835404028352916020019161134a565b820191906000526020600020905b81548152906001019060200180831161132d57829003601f168201915b50505050509080600501805461135f906120b0565b80601f016020809104026020016040519081016040528092919081815260200182805461138b906120b0565b80156113d85780601f106113ad576101008083540402835291602001916113d8565b820191906000526020600020905b8154815290600101906020018083116113bb57829003601f168201915b5050505050908060060160009054906101000a900460ff16908060070154908060090160009054906101000a900473ffffffffffffffffffffffffffffffffffffffff16908060090160149054906101000a900460ff1690508a565b6000600160008373ffffffffffffffffffffffffffffffffffffffff1673ffffffffffffffffffffffffffffffffffffffff168152602001908152602001600020549050919050565b6000808660405161148e919061206a565b908152602001604051809103902060070154146114e0576040517f08c379a00000000000000000000000000000000000000000000000000000000081526004016114d790612578565b60405180910390fd5b60606040518061016001604052808781526020013373ffffffffffffffffffffffffffffffffffffffff168152602001868152602001858152602001848152602001838152602001600015158152602001428152602001828152602001600073ffffffffffffffffffffffffffffffffffffffff16815260200160001515815250600087604051611571919061206a565b90815260200160405180910390206000820151816000019081611594919061228d565b5060208201518160010160006101000a81548173ffffffffffffffffffffffffffffffffffffffff021916908373ffffffffffffffffffffffffffffffffffffffff16021790555060408201518160020190816115f1919061228d565b506060820151816003019081611607919061228d565b50608082015181600401908161161d919061228d565b5060a0820151816005019081611633919061228d565b5060c08201518160060160006101000a81548160ff02191690831515021790555060e0820151816007015561010082015181600801908051906020019061167b9291906118f8565b506101208201518160090160006101000a81548173ffffffffffffffffffffffffffffffffffffffff021916908373ffffffffffffffffffffffffffffffffffffffff1602179055506101408201518160090160146101000a81548160ff02191690831515021790555090505060018060003373ffffffffffffffffffffffffffffffffffffffff1673ffffffffffffffffffffffffffffffffffffffff16815260200190815260200160002060008282546117379190612598565b925050819055503373ffffffffffffffffffffffffffffffffffffffff1686604051611763919061206a565b60405180910390207f23f9493c4a32831ffdd91d1b33522c720c66bf6dfd01ec008aefaaa01d3d164c60405160405180910390a3505050505050565b60016020528060005260406000206000915090505481565b600080826040516117c8919061206a565b9081526020016040518091039020600701540361181a576040517f08c379a000000000000000000000000000000000000000000000000000000000815260040161181190612618565b60405180910390fd5b60008160405161182a919061206a565b9081526020016040518091039020600801339080600181540180825580915050600190039060005260206000200160009091909190916101000a81548173ffffffffffffffffffffffffffffffffffffffff021916908373ffffffffffffffffffffffffffffffffffffffff1602179055503373ffffffffffffffffffffffffffffffffffffffff16816040516118c1919061206a565b60405180910390207f6583c0cabf55a144b38148d0ac9964c01c1b32de4d5897ae6722b29cd825b3a960405160405180910390a350565b828054828255906000526020600020908101928215611971579160200282015b828111156119705782518260006101000a81548173ffffffffffffffffffffffffffffffffffffffff021916908373ffffffffffffffffffffffffffffffffffffffff16021790555091602001919060010190611918565b5b50905061197e9190611982565b5090565b5b8082111561199b576000816000905550600101611983565b5090565b6000604051905090565b600080fd5b600080fd5b600080fd5b600080fd5b6000601f19601f8301169050919050565b7f4e487b7100000000000000000000000000000000000000000000000000000000600052604160045260246000fd5b611a06826119bd565b810181811067ffffffffffffffff82111715611a2557611a246119ce565b5b80604052505050565b6000611a3861199f565b9050611a4482826119fd565b919050565b600067ffffffffffffffff821115611a6457611a636119ce565b5b611a6d826119bd565b9050602081019050919050565b82818337600083830152505050565b6000611a9c611a9784611a49565b611a2e565b905082815260208101848484011115611ab857611ab76119b8565b5b611ac3848285611a7a565b509392505050565b600082601f830112611ae057611adf6119b3565b5b8135611af0848260208601611a89565b91505092915050565b600080600080600060a08688031215611b1557611b146119a9565b5b600086013567ffffffffffffffff811115611b3357611b326119ae565b5b611b3f88828901611acb565b955050602086013567ffffffffffffffff811115611b6057611b5f6119ae565b5b611b6c88828901611acb565b945050604086013567ffffffffffffffff811115611b8d57611b8c6119ae565b5b611b9988828901611acb565b935050606086013567ffffffffffffffff811115611bba57611bb96119ae565b5b611bc688828901611acb565b925050608086013567ffffffffffffffff811115611be757611be66119ae565b5b611bf388828901611acb565b9150509295509295909350565b600060208284031215611c1657611c156119a9565b5b600082013567ffffffffffffffff811115611c3457611c336119ae565b5b611c4084828501611acb565b91505092915050565b600081519050919050565b600082825260208201905092915050565b6000819050602082019050919050565b600073ffffffffffffffffffffffffffffffffffffffff82169050919050565b6000611ca082611c75565b9050919050565b611cb081611c95565b82525050565b6000611cc28383611ca7565b60208301905092915050565b6000602082019050919050565b6000611ce682611c49565b611cf08185611c54565b9350611cfb83611c65565b8060005b83811015611d2c578151611d138882611cb6565b9750611d1e83611cce565b925050600181019050611cff565b5085935050505092915050565b60006020820190508181036000830152611d538184611cdb565b905092915050565b611d6481611c95565b82525050565b60008115159050919050565b611d7f81611d6a565b82525050565b6000819050919050565b611d9881611d85565b82525050565b600060a082019050611db36000830188611d5b565b611dc06020830187611d76565b611dcd6040830186611d8f565b611dda6060830185611d5b565b611de76080830184611d76565b9695505050505050565b611dfa81611c95565b8114611e0557600080fd5b50565b600081359050611e1781611df1565b92915050565b600080600060608486031215611e3657611e356119a9565b5b600084013567ffffffffffffffff811115611e5457611e536119ae565b5b611e6086828701611acb565b9350506020611e7186828701611e08565b925050604084013567ffffffffffffffff811115611e9257611e916119ae565b5b611e9e86828701611acb565b9150509250925092565b600081519050919050565b600082825260208201905092915050565b60005b83811015611ee2578082015181840152602081019050611ec7565b60008484015250505050565b6000611ef982611ea8565b611f038185611eb3565b9350611f13818560208601611ec4565b611f1c816119bd565b840191505092915050565b6000610140820190508181036000830152611f42818d611eee565b9050611f51602083018c611d5b565b8181036040830152611f63818b611eee565b90508181036060830152611f77818a611eee565b90508181036080830152611f8b8189611eee565b905081810360a0830152611f9f8188611eee565b9050611fae60c0830187611d76565b611fbb60e0830186611d8f565b611fc9610100830185611d5b565b611fd7610120830184611d76565b9b9a5050505050505050505050565b600060208284031215611ffc57611ffb6119a9565b5b600061200a84828501611e08565b91505092915050565b60006020820190506120286000830184611d8f565b92915050565b600081905092915050565b600061204482611ea8565b61204e818561202e565b935061205e818560208601611ec4565b80840191505092915050565b60006120768284612039565b915081905092915050565b7f4e487b7100000000000000000000000000000000000000000000000000000000600052602260045260246000fd5b600060028204905060018216806120c857607f821691505b6020821081036120db576120da612081565b5b50919050565b60008190508160005260206000209050919050565b60006020601f8301049050919050565b600082821b905092915050565b6000600883026121437fffffffffffffffffffffffffffffffffffffffffffffffffffffffffffffffff82612106565b61214d8683612106565b95508019841693508086168417925050509392505050565b6000819050919050565b600061218a61218561218084611d85565b612165565b611d85565b9050919050565b6000819050919050565b6121a48361216f565b6121b86121b082612191565b848454612113565b825550505050565b600090565b6121cd6121c0565b6121d881848461219b565b505050565b5b818110156121fc576121f16000826121c5565b6001810190506121de565b5050565b601f82111561224157612212816120e1565b61221b846120f6565b8101602085101561222a578190505b61223e612236856120f6565b8301826121dd565b50505b505050565b600082821c905092915050565b600061226460001984600802612246565b1980831691505092915050565b600061227d8383612253565b9150826002028217905092915050565b61229682611ea8565b67ffffffffffffffff8111156122af576122ae6119ce565b5b6122b982546120b0565b6122c4828285612200565b600060209050601f8311600181146122f757600084156122e5578287015190505b6122ef8582612271565b865550612357565b601f198416612305866120e1565b60005b8281101561232d57848901518255600182019150602085019450602081019050612308565b8683101561234a5784890151612346601f891682612253565b8355505b6001600288020188555050505b505050505050565b7f4e487b7100000000000000000000000000000000000000000000000000000000600052601160045260246000fd5b600061239982611d85565b91506123a483611d85565b92508282039050818111156123bc576123bb61235f565b5b92915050565b7f4f726967696e616c20766964656f206e6f7420666f756e640000000000000000600082015250565b60006123f8601883611eb3565b9150612403826123c2565b602082019050919050565b60006020820190508181036000830152612427816123eb565b9050919050565b7f4f6e6c79206f726967696e616c2075706c6f616465722063616e206772616e7460008201527f207065726d697373696f6e000000000000000000000000000000000000000000602082015250565b600061248a602b83611eb3565b91506124958261242e565b604082019050919050565b600060208201905081810360008301526124b98161247d565b9050919050565b7f4e657720766964656f496420616c726561647920657869737473000000000000600082015250565b60006124f6601a83611eb3565b9150612501826124c0565b602082019050919050565b60006020820190508181036000830152612525816124e9565b9050919050565b7f566964656f20616c726561647920657869737473000000000000000000000000600082015250565b6000612562601483611eb3565b915061256d8261252c565b602082019050919050565b6000602082019050818103600083015261259181612555565b9050919050565b60006125a382611d85565b91506125ae83611d85565b92508282019050808211156125c6576125c561235f565b5b92915050565b7f566964656f206e6f7420666f756e640000000000000000000000000000000000600082015250565b6000612602600f83611eb3565b915061260d826125cc565b602082019050919050565b60006020820190508181036000830152612631816125f5565b905091905056fea26469706673582212206442c18a707e00cffecfa09153033ca4151d4daba0ae5374f6f2f7d223a4d14a64736f6c634300081c0033",
  "linkReferences": {},
  "deployedLinkReferences": {}
}