{
  "_format": "hh-sol-artifact-1",
  "contractName": "storageVid",
  "sourceName": "contracts/storageVid.sol",
  "abi": [
    {
      "inputs": [],
      "stateMutability": "nonpayable",
      "type": "constructor"
    },
    {
      "anonymous": false,
      "inputs": [
        {
          "indexed": false,
          "internalType": "uint256",
          "name": "id",
          "type": "uint256"
        },
        {
          "indexed": false,
          "internalType": "string",
          "name": "hash",
          "type": "string"
        },
        {
          "indexed": false,
          "internalType": "string",
          "name": "description",
          "type": "string"
        },
        {
          "indexed": false,
          "internalType": "uint256",
          "name": "tipAmount",
          "type": "uint256"
        },
        {
          "indexed": false,
          "internalType": "address payable",
          "name": "author",
          "type": "address"
        }
      ],
      "name": "VideoCreated",
      "type": "event"
    },
    {
      "anonymous": false,
      "inputs": [
        {
          "indexed": false,
          "internalType": "uint256",
          "name": "id",
          "type": "uint256"
        },
        {
          "indexed": false,
          "internalType": "string",
          "name": "hash",
          "type": "string"
        },
        {
          "indexed": false,
          "internalType": "string",
          "name": "description",
          "type": "string"
        },
        {
          "indexed": false,
          "internalType": "uint256",
          "name": "tipAmount",
          "type": "uint256"
        },
        {
          "indexed": false,
          "internalType": "address payable",
          "name": "author",
          "type": "address"
        }
      ],
      "name": "VideoTipped",
      "type": "event"
    },
    {
      "inputs": [],
      "name": "name",
      "outputs": [
        {
          "internalType": "string",
          "name": "",
          "type": "string"
        }
      ],
      "stateMutability": "view",
      "type": "function"
    },
    {
      "inputs": [
        {
          "internalType": "uint256",
          "name": "_id",
          "type": "uint256"
        }
      ],
      "name": "tipVideoOwner",
      "outputs": [],
      "stateMutability": "payable",
      "type": "function"
    },
    {
      "inputs": [
        {
          "internalType": "string",
          "name": "_videoHash",
          "type": "string"
        },
        {
          "internalType": "string",
          "name": "_description",
          "type": "string"
        }
      ],
      "name": "uploadVideo",
      "outputs": [],
      "stateMutability": "nonpayable",
      "type": "function"
    },
    {
      "inputs": [],
      "name": "videoCount",
      "outputs": [
        {
          "internalType": "uint256",
          "name": "",
          "type": "uint256"
        }
      ],
      "stateMutability": "view",
      "type": "function"
    },
    {
      "inputs": [
        {
          "internalType": "uint256",
          "name": "",
          "type": "uint256"
        }
      ],
      "name": "videos",
      "outputs": [
        {
          "internalType": "uint256",
          "name": "id",
          "type": "uint256"
        },
        {
          "internalType": "string",
          "name": "hash",
          "type": "string"
        },
        {
          "internalType": "string",
          "name": "description",
          "type": "string"
        },
        {
          "internalType": "uint256",
          "name": "tipAmount",
          "type": "uint256"
        },
        {
          "internalType": "address payable",
          "name": "author",
          "type": "address"
        }
      ],
      "stateMutability": "view",
      "type": "function"
    }
  ],
  "bytecode": "0x6080604052600060015534801561001557600080fd5b506040518060400160405280600d81526020017f446563656e747261766964656f000000000000000000000000000000000000008152506000908161005a91906102b0565b50610382565b600081519050919050565b7f4e487b7100000000000000000000000000000000000000000000000000000000600052604160045260246000fd5b7f4e487b7100000000000000000000000000000000000000000000000000000000600052602260045260246000fd5b600060028204905060018216806100e157607f821691505b6020821081036100f4576100f361009a565b5b50919050565b60008190508160005260206000209050919050565b60006020601f8301049050919050565b600082821b905092915050565b60006008830261015c7fffffffffffffffffffffffffffffffffffffffffffffffffffffffffffffffff8261011f565b610166868361011f565b95508019841693508086168417925050509392505050565b6000819050919050565b6000819050919050565b60006101ad6101a86101a38461017e565b610188565b61017e565b9050919050565b6000819050919050565b6101c783610192565b6101db6101d3826101b4565b84845461012c565b825550505050565b600090565b6101f06101e3565b6101fb8184846101be565b505050565b5b8181101561021f576102146000826101e8565b600181019050610201565b5050565b601f82111561026457610235816100fa565b61023e8461010f565b8101602085101561024d578190505b6102616102598561010f565b830182610200565b50505b505050565b600082821c905092915050565b600061028760001984600802610269565b1980831691505092915050565b60006102a08383610276565b9150826002028217905092915050565b6102b982610060565b67ffffffffffffffff8111156102d2576102d161006b565b5b6102dc82546100c9565b6102e7828285610223565b600060209050601f83116001811461031a5760008415610308578287015190505b6103128582610294565b86555061037a565b601f198416610328866100fa565b60005b828110156103505784890151825560018201915060208501945060208101905061032b565b8683101561036d5784890151610369601f891682610276565b8355505b6001600288020188555050505b505050505050565b611244806103916000396000f3fe60806040526004361061004a5760003560e01c806306fdde031461004f578063693df64f1461007a5780638a5447c514610096578063c61b5f4c146100bf578063e6821bf5146100ea575b600080fd5b34801561005b57600080fd5b5061006461012b565b6040516100719190610790565b60405180910390f35b610094600480360381019061008f91906107fc565b6101b9565b005b3480156100a257600080fd5b506100bd60048036038101906100b8919061095e565b610360565b005b3480156100cb57600080fd5b506100d4610594565b6040516100e191906109e5565b60405180910390f35b3480156100f657600080fd5b50610111600480360381019061010c91906107fc565b61059a565b604051610122959493929190610a41565b60405180910390f35b6000805461013890610ad1565b80601f016020809104026020016040519081016040528092919081815260200182805461016490610ad1565b80156101b15780601f10610186576101008083540402835291602001916101b1565b820191906000526020600020905b81548152906001019060200180831161019457829003601f168201915b505050505081565b6000811180156101cb57506001548111155b61020a576040517f08c379a000000000000000000000000000000000000000000000000000000000815260040161020190610b4e565b60405180910390fd5b600060026000838152602001908152602001600020905060008160040160009054906101000a900473ffffffffffffffffffffffffffffffffffffffff16905060008173ffffffffffffffffffffffffffffffffffffffff163460405161027090610b9f565b60006040518083038185875af1925050503d80600081146102ad576040519150601f19603f3d011682016040523d82523d6000602084013e6102b2565b606091505b50509050806102f6576040517f08c379a00000000000000000000000000000000000000000000000000000000081526004016102ed90610c00565b60405180910390fd5b3483600301600082825461030a9190610c4f565b925050819055507fbfeb378d5d03c2c5835089635313fc2b1019a54149ff2a3269df479a6280c1e1848460010185600201866003015486604051610352959493929190610d1c565b60405180910390a150505050565b60008251116103a4576040517f08c379a000000000000000000000000000000000000000000000000000000000815260040161039b90610dc9565b60405180910390fd5b60008151116103e8576040517f08c379a00000000000000000000000000000000000000000000000000000000081526004016103df90610e35565b60405180910390fd5b600073ffffffffffffffffffffffffffffffffffffffff163373ffffffffffffffffffffffffffffffffffffffff1603610457576040517f08c379a000000000000000000000000000000000000000000000000000000000815260040161044e90610ea1565b60405180910390fd5b6001600081548092919061046a90610ec1565b91905055506040518060a001604052806001548152602001838152602001828152602001600081526020013373ffffffffffffffffffffffffffffffffffffffff168152506002600060015481526020019081526020016000206000820151816000015560208201518160010190816104e391906110a0565b5060408201518160020190816104f991906110a0565b506060820151816003015560808201518160040160006101000a81548173ffffffffffffffffffffffffffffffffffffffff021916908373ffffffffffffffffffffffffffffffffffffffff1602179055509050507fc569b8c074f7ed9af0f01f5bb58a866b3e26a492874db1828ad379e0e73c2d3a60015483836000336040516105889594939291906111ad565b60405180910390a15050565b60015481565b60026020528060005260406000206000915090508060000154908060010180546105c390610ad1565b80601f01602080910402602001604051908101604052809291908181526020018280546105ef90610ad1565b801561063c5780601f106106115761010080835404028352916020019161063c565b820191906000526020600020905b81548152906001019060200180831161061f57829003601f168201915b50505050509080600201805461065190610ad1565b80601f016020809104026020016040519081016040528092919081815260200182805461067d90610ad1565b80156106ca5780601f1061069f576101008083540402835291602001916106ca565b820191906000526020600020905b8154815290600101906020018083116106ad57829003601f168201915b5050505050908060030154908060040160009054906101000a900473ffffffffffffffffffffffffffffffffffffffff16905085565b600081519050919050565b600082825260208201905092915050565b60005b8381101561073a57808201518184015260208101905061071f565b60008484015250505050565b6000601f19601f8301169050919050565b600061076282610700565b61076c818561070b565b935061077c81856020860161071c565b61078581610746565b840191505092915050565b600060208201905081810360008301526107aa8184610757565b905092915050565b6000604051905090565b600080fd5b600080fd5b6000819050919050565b6107d9816107c6565b81146107e457600080fd5b50565b6000813590506107f6816107d0565b92915050565b600060208284031215610812576108116107bc565b5b6000610820848285016107e7565b91505092915050565b600080fd5b600080fd5b7f4e487b7100000000000000000000000000000000000000000000000000000000600052604160045260246000fd5b61086b82610746565b810181811067ffffffffffffffff8211171561088a57610889610833565b5b80604052505050565b600061089d6107b2565b90506108a98282610862565b919050565b600067ffffffffffffffff8211156108c9576108c8610833565b5b6108d282610746565b9050602081019050919050565b82818337600083830152505050565b60006109016108fc846108ae565b610893565b90508281526020810184848401111561091d5761091c61082e565b5b6109288482856108df565b509392505050565b600082601f83011261094557610944610829565b5b81356109558482602086016108ee565b91505092915050565b60008060408385031215610975576109746107bc565b5b600083013567ffffffffffffffff811115610993576109926107c1565b5b61099f85828601610930565b925050602083013567ffffffffffffffff8111156109c0576109bf6107c1565b5b6109cc85828601610930565b9150509250929050565b6109df816107c6565b82525050565b60006020820190506109fa60008301846109d6565b92915050565b600073ffffffffffffffffffffffffffffffffffffffff82169050919050565b6000610a2b82610a00565b9050919050565b610a3b81610a20565b82525050565b600060a082019050610a5660008301886109d6565b8181036020830152610a688187610757565b90508181036040830152610a7c8186610757565b9050610a8b60608301856109d6565b610a986080830184610a32565b9695505050505050565b7f4e487b7100000000000000000000000000000000000000000000000000000000600052602260045260246000fd5b60006002820490506001821680610ae957607f821691505b602082108103610afc57610afb610aa2565b5b50919050565b7f496e76616c696420766964656f20494400000000000000000000000000000000600082015250565b6000610b3860108361070b565b9150610b4382610b02565b602082019050919050565b60006020820190508181036000830152610b6781610b2b565b9050919050565b600081905092915050565b50565b6000610b89600083610b6e565b9150610b9482610b79565b600082019050919050565b6000610baa82610b7c565b9150819050919050565b7f5472616e73666572206661696c65640000000000000000000000000000000000600082015250565b6000610bea600f8361070b565b9150610bf582610bb4565b602082019050919050565b60006020820190508181036000830152610c1981610bdd565b9050919050565b7f4e487b7100000000000000000000000000000000000000000000000000000000600052601160045260246000fd5b6000610c5a826107c6565b9150610c65836107c6565b9250828201905080821115610c7d57610c7c610c20565b5b92915050565b60008190508160005260206000209050919050565b60008154610ca581610ad1565b610caf818661070b565b94506001821660008114610cca5760018114610ce057610d13565b60ff198316865281151560200286019350610d13565b610ce985610c83565b60005b83811015610d0b57815481890152600182019150602081019050610cec565b808801955050505b50505092915050565b600060a082019050610d3160008301886109d6565b8181036020830152610d438187610c98565b90508181036040830152610d578186610c98565b9050610d6660608301856109d6565b610d736080830184610a32565b9695505050505050565b7f566964656f206861736820697320726571756972656400000000000000000000600082015250565b6000610db360168361070b565b9150610dbe82610d7d565b602082019050919050565b60006020820190508181036000830152610de281610da6565b9050919050565b7f566964656f206465736372697074696f6e206973207265717569726564000000600082015250565b6000610e1f601d8361070b565b9150610e2a82610de9565b602082019050919050565b60006020820190508181036000830152610e4e81610e12565b9050919050565b7f55706c6f61646572206164647265737320696e76616c69640000000000000000600082015250565b6000610e8b60188361070b565b9150610e9682610e55565b602082019050919050565b60006020820190508181036000830152610eba81610e7e565b9050919050565b6000610ecc826107c6565b91507fffffffffffffffffffffffffffffffffffffffffffffffffffffffffffffffff8203610efe57610efd610c20565b5b600182019050919050565b60006020601f8301049050919050565b600082821b905092915050565b600060088302610f567fffffffffffffffffffffffffffffffffffffffffffffffffffffffffffffffff82610f19565b610f608683610f19565b95508019841693508086168417925050509392505050565b6000819050919050565b6000610f9d610f98610f93846107c6565b610f78565b6107c6565b9050919050565b6000819050919050565b610fb783610f82565b610fcb610fc382610fa4565b848454610f26565b825550505050565b600090565b610fe0610fd3565b610feb818484610fae565b505050565b5b8181101561100f57611004600082610fd8565b600181019050610ff1565b5050565b601f8211156110545761102581610c83565b61102e84610f09565b8101602085101561103d578190505b61105161104985610f09565b830182610ff0565b50505b505050565b600082821c905092915050565b600061107760001984600802611059565b1980831691505092915050565b60006110908383611066565b9150826002028217905092915050565b6110a982610700565b67ffffffffffffffff8111156110c2576110c1610833565b5b6110cc8254610ad1565b6110d7828285611013565b600060209050601f83116001811461110a57600084156110f8578287015190505b6111028582611084565b86555061116a565b601f19841661111886610c83565b60005b828110156111405784890151825560018201915060208501945060208101905061111b565b8683101561115d5784890151611159601f891682611066565b8355505b6001600288020188555050505b505050505050565b6000819050919050565b600061119761119261118d84611172565b610f78565b6107c6565b9050919050565b6111a78161117c565b82525050565b600060a0820190506111c260008301886109d6565b81810360208301526111d48187610757565b905081810360408301526111e88186610757565b90506111f7606083018561119e565b6112046080830184610a32565b969550505050505056fea26469706673582212209c03328ef288d7a0e122c9163703574ab5dcf188d6035dd6f65ebd3d0aec764e64736f6c634300081c0033",
  "linkReferences": {},
  "deployedLinkReferences": {}
}